:020000021000EC
:10900000006000205D930100A5930100A79301007B
:10901000A9930100AB930100AD9301000000000093
:10902000000000000000000000000000AF930100FD
:10903000B193010000000000B3930100B59301005B
:1090400021CB0100B79301002DCF0100B7930100A0
:10905000B793010000000000E1CD0100B7930100CB
:10906000B7930100B7930100B7930100B7930100D4
:10907000B7930100B7930100B7930100B7930100C4
:10908000B793010091A90100B7930100000000000F
:10909000B7930100B793010075020200B793010076
:1090A000B7930100B793010000000000000000002A
:1090B00000000000000000000000000000000000B0
:1090C00000000000000000000000000000000000A0
:1090D0000000000000000000000000000000000090
:1090E0000000000000000000000000000000000080
:1090F0000000000000000000000000000000000070
:10910000000000000000000000000000000000005F
:10911000000000000000000000000000000000004F
:10912000000000000000000000000000000000003F
:10913000000000000000000000000000000000002F
:10914000000000000000000000000000000000001F
:10915000000000000000000000000000000000000F
:1091600000000000000000000000000000000000FF
:1091700000000000000000000000000000000000EF
:1091800000000000000000000000000000000000DF
:1091900000000000000000000000000000000000CF
:1091A00000000000000000000000000000000000BF
:1091B00000000000000000000000000000000000AF
:1091C000000000000000000000000000000000009F
:1091D000000000000000000000000000000000008F
:1091E000000000000000000000000000000000007F
:1091F000000000000000000000000000000000006F
:10920000354936480A1A02D0072291438D4634491F
:1092100034480A1A06D00722914381F309880222B2
:1092200082F3148830483149314A00F044F831481B
:109230003149324A00F03FF831483249324A00F0B1
:109240003AF832483249334A00F035F83248334967
:10925000334A00F030F833483349344A00F02BF8F1
:1092600033483449344A00F026F83448344900225F
:1092700000F02CF833483449002200F027F8334836
:109280003349091A082902DB002202604160314A91
:1092900090471F481F49884205D00268043003B434
:1092A000904703BCF7E700208646EC4600200021EB
:1092B000294A9047FEE7884207D0521A05D0037822
:1092C00001300B700131013AF9D17047884202D068
:1092D00002700130FAE77047006000200050002063
:1092E0000060002000600020588F0200DC22002077
:1092F00010240020BC930100BC9301009C43020099
:10930000588F0200DC220020DC220020E44402000E
:10931000E4440200E4440200E4440200E4440200A5
:10932000E4440200E4440200E4440200578F0200D7
:109330008C90020010240020102400201024002013
:10934000E83B0020E83B0020E83B0020E83B002011
:10935000E843002073930100FDE3010000F02CB806
:109360000B484FF00701884385460A488047FFF7BE
:1093700047BF094809490A4A884207D0521A05D00E
:10938000037801300B700131013AF9D170470000C8
:109390000060002069C60100D0440200C8220020FD
:1093A000DC220020FEE7FEE7FEE7FEE7FEE7FEE741
:0C93B000FEE7FEE7FEE7FEE7FFF7D2BF96
:1093BC007047000007B5044B0093044A402300F0AB
:1093CC0032F803B05DF804FBDD930100112400209A
:1093DC002DE9F84388461446B2B10F4B0F4E0325C6
:1093EC00002743F00109224608EB0701002005F095
:1093FC0081FC0744241A48B933782BB14FF47A40D6
:10940C00C847013D02D13570BDE8F88301233370A4
:10941C00002CE8D1F8E700BFF04402001024002033
:10942C00704705F097BCF0B595B01D46164608463A
:10943C000C4601F093FE1A9B0D93CDE908650025AF
:10944C002B46082205A920460A958DF82C500C9520
:10945C0001F0A0FE079B0293069B03939DF814302A
:10946C008DF8115003F00302012A1DD1BDF8142010
:10947C00059DC3F3C203C2F383168DF81030B200FE
:10948C0008230EA9204601F085FEC5F3952508ABEF
:10949C000093324602AB0EA9284600F037FB20465B
:1094AC0001F060FE15B0F0BD022AF8D1BDF81650DF
:1094BC00C3F3C203C5F389158DF810300827082DA6
:1094CC002E4628BF08263B4632460EA9204601F000
:1094DC0061FEAD1B08AB02AA31460EA8374400F062
:1094EC0079FB002DEBD1DAE708B5FFF79AFF0448BA
:1094FC00042100F07BFA034B01225A7108BD00BF16
:10950C00C0440200DC2200200378024613F0040061
:10951C0006D003F00300012803D0022809D0012053
:10952C0070470B6812880233C2F3831213440B602A
:10953C0070470B685288023303EB92130B60EEE713
:10954C002DE9F04FDFF81CA187B00F46002304462D
:10955C00861C0DF1070015468DF8073001F0A6F8B2
:10956C00DAF804203A60DAF8083003F580739B1AB5
:10957C000AF21C470AF583690AF21448B3421AD35B
:10958C000020002D69D004F00F039B0143F005036C
:10959C0063F30F00DAF80430DAB2033233444AF8DA
:1095AC0022009DF80700CAF8043001F0A3F801204E
:1095BC0007B0BDE8F08F0121384601F0FAFA4846B1
:1095CC0001F012FB404601F00FFBDAF808000290A4
:1095DC00C0B203300AEB800002A9FFF795FF029B93
:1095EC0030BBDAB20AEB8202D16803919A1C0133C8
:1095FC00DBB20AEB83030292D3F80CB001F0030345
:10960C00012B22D0022B15D08346404601F0EFFAF5
:10961C0010B1029BCAF808305946384601F0C9FA15
:10962C00DAF80830DAF8042003F580739B1AA5E702
:10963C00D8B2CEE7BDF80E30C3F3891303334FEA2B
:10964C001B4B02EB93030293DFE7BDF80C30C3F323
:10965C0083134FEA1B4B1344F5E7A40544F00600B3
:10966C0098E700BF24250020064B074810B50022C0
:10967C001A7001F02CFD044610B9044801F0B8FD35
:10968C00204610BD24250020144402002C45020065
:10969C0030B50A4C71B10A4A0A49121BD208002390
:1096AC009A4201D1002030BD31F82350854202D0BE
:1096BC000133F5E7034654F83300F4E73044020075
:1096CC00C0440200DC220020094B013903EBC0002E
:1096DC00032909D8DFE801F00A02040604207047C8
:1096EC00007970474079704700207047022070471E
:1096FC003044020070470000034BD3E90130C31A19
:10970C0058425841704700BF242500202DE9F041F4
:10971C0086B0FFF7F1FF0546002840F0ED80774C4E
:10972C00C4F81804BFF34F8FA3680293DBB2033362
:10973C0004EB830002A9FFF7E7FE029B18B1D4F8F3
:10974C001824002A5AD0DAB2991C013304EB820295
:10975C00DBB204EB8303D268DB68049302F00303EF
:10976C00022B0392029154D1BDF80E306448C3F31E
:10977C008917502F3E4628BF502606F1080166F384
:10978C008F13C1F30901ADF80E3001F0B8FC05469A
:10979C00002800F09C8001F0E1FC0023082203A9C2
:1097AC00284601F0EDFC0299CB43DBB20133C9B280
:1097BC000331B6EB830F4FEA830204EB810125D909
:1097CC005FFA82F80823A6EB0806284601F0D8FCBD
:1097DC00F6B208F108034B4903F0FC033246284665
:1097EC0001F0CEFC029B033703EB97070297D4F8EA
:1097FC001834002B43D1D4F8106453E062689A42B9
:10980C0094D8A260284606B0BDE8F0810823324601
:10981C00E5E7012B5BD1BDF80C303948C3F383115C
:10982C00062928BF062161F38913023101F00F01CB
:10983C008900ADF80C3001F062FC0546002846D0DA
:10984C0001F08CFC0023082203A9284601F098FCA7
:10985C000026BDF80C20C2F38312B300964203F12C
:10986C000803C4D202994A1CC9B20331029204EB18
:10987C0081010422284601F083FC0136E9E72846E1
:10988C0001F070FCFFF738FF80F00105EDB2B9E78D
:10989C00F3685B7923B1336829461B6830469847D7
:1098AC00F3681E68002EF3D1284601F05BFC0DF125
:1098BC0007008DF8076000F0F9FED4F818340BB9E6
:1098CC00029BA3609DF8070000F014FFDAE7D4F8C0
:1098DC00104454B90C4B0D480D49C01AC008000473
:1098EC0040F0020000F05EF8CCE7236820469B684D
:1098FC009847E3681C68ECE7002583E724250020E3
:10990C001444020030250020304402005844020068
:10991C00144502002DE9F34704460E46924601A970
:10992C00012218469946FFF70BFE1C4F10B3019D00
:10993C004FF00008AA1CC84508EB020125D11848B5
:10994C00002101F0EFF880F31000000440EA14400D
:10995C00E4006B1C04F03804DBB2EDB244F00104FB
:10996C0007EB8303033544EA881444EA8624D86061
:10997C0047F825403B781BB1FFF7C8FE0028FBD108
:10998C00FFF7B8FE02B0BDE8F087C9B207EB810162
:10999C005AF82830CB6008F10108CCE724250020C8
:1099AC004029002000231A46FFF7B4BF07B5012356
:1099BC00019201AAFFF7AEFF03B05DF804FB07B5F7
:1099CC00CDE9002302236A46FFF7A4FF03B05DF83C
:1099DC0004FB1FB5CDE90123069B039301AA0323C6
:1099EC00FFF798FF05B05DF804FB000030B50F4C95
:1099FC00D4F8102403460020114631B9D9680871F7
:109A0C004AB9C4F810340A6030BDC9680D79854272
:109A1C0006D00968F1E7D26814680C601360F3E7AC
:109A2C0001300A28E8D14FF0FF30EDE72425002063
:109A3C0038B5084B0125D3F810441D7004B938BD56
:109A4C00E3685D71236820465B689847E3681C688F
:109A5C00F4E700BF24250020C38873B504460D46E7
:109A6C0033B1144A00921449144A284601F022F9E1
:109A7C00217A05291CD0637A4BB1A088FFF724FE0C
:109A8C000F4B104953F82020284601F013F9227A85
:109A9C000D4BA08853F822600021FFF7F9FD0B490C
:109AAC0003463246284602B0BDE8704001F002B9C8
:109ABC0002B070BD58450200404502003845020016
:109ACC00C4450200DB4F0200E84502005D45020080
:109ADC0010B5037A052B0C460FD0437A23B1084AF4
:109AEC000849204601F0E6F80749204601F0E2F863
:109AFC002046BDE8104001F0D2B8002AF8D0F3E7B8
:109B0C0058450200DB4F0200C74E02002DE9F0431E
:109B1C0085B01F460C9D002395F80C902B730646C0
:109B2C000C46904629463846FFF796FFB8F1060FCB
:109B3C0009D8DFE808F00412181F2833400031461A
:109B4C00284601F0B7F8002229463846FFF7C0FF37
:109B5C0085F80C9005B0BDE8F083226831462846A4
:109B6C0001F0A8F8EFE7D4E900233146284601F0CC
:109B7C00A1F8E8E7A36800933146D4E9002328460E
:109B8C0001F098F8DFE7E3680193A368009331468E
:109B9C00D4E90023284601F08DF8D4E72369029319
:109BAC00E3680193A36800933146D4E90023284667
:109BBC0001F080F8C7E76369039323690293E368B4
:109BCC000193A36800933146D4E90023284601F0A1
:109BDC0071F8B8E708292DE9F74F80460E4617466D
:109BEC001C463CD800251B7B25732146104601934F
:109BFC00FFF732FFDFF880A0DFF880B0AE4231D93A
:109C0C0018F805205946204601F054F80135082D66
:109C1C00F4D11B49DFF86CA0DFF86CB0204601F0E2
:109C2C0049F84FF000094E4521D918F809507E2DFE
:109C3C0003D8284609F086FE00B92E252A46594637
:109C4C00204601F037F809F10109B9F1080FEAD102
:109C5C00012221463846FFF73BFF019B237303B0DB
:109C6C00BDE8F08F5146204601F024F8CEE751466E
:109C7C00204601F01FF8E6E76D450200674502003B
:109C8C00714502006F45020073450200C30710B511
:109C9C0007D4F023054A4008145C2340194311549F
:109CAC0010BD0901C9B20F23F4E700BFF029002051
:109CBC0030B5094B1C78094B0246196800239C42AD
:109CCC0001DC002030BD11F83350954201EBC3008C
:109CDC00F8D00133F3E700BFDC290020002A002074
:109CEC0070B504460D46FFF7E3FF30B1436823B16E
:109CFC0029462046BDE87040184770BD034B044808
:109D0C0019680022490800F089BA00BFE029002038
:109D1C00E822002010B5C0B2FFF7CAFF0446007855
:109D2C0003F04EF863785A1E53425341834208D1D4
:109D3C00044BD3E90023134303D1BDE81040FFF7D4
:109D4C00DDBF10BDE829002037B54308374AD35C86
:109D5C00C2074CBF1B0903F00F0304460D46042B2E
:109D6C0025D8DFE803F003262F3C4000F9B1012190
:109D7C00FFF78CFF00230DF107008DF8073000F082
:109D8C0095FC0120A4F12003C4F12001284A20FAFB
:109D9C0001F100FA03F30B43A040D2E90041204348
:109DAC000B43C2E900039DF8070000F0A3FC03B0CD
:109DBC0030BD002918BF0221204603B0BDE8304059
:109DCC00FFF764BF49B10321FFF760FF0121204673
:109DDC0003B0BDE83040FFF783BF0121ECE7002959
:109DEC00E5D10421E8E709B10321E5E7FFF74EFFD0
:109DFC0029462046FFF774FF0DF107008DF8075038
:109E0C0000F054FC0120A4F12003C4F12001084A05
:109E1C0020FA01F100FA03F30B43A040D2E9004110
:109E2C0024EA000021EA0303BBE700BFF02900206D
:109E3C00E82900202DE9F041124E134F002433780D
:109E4C00A34208DC114BD3E90023134318D0BDE81F
:109E5C00F041FFF753BF3D6805EBC40815F834001B
:109E6C0002F0AEFF98F801305A1E53425341181AB3
:109E7C004142414115F83400FFF766FF0134DEE73B
:109E8C00BDE8F081DC290020002A0020E829002010
:109E9C00092AF7B505460C4616463ED902F0C8FE0F
:109EAC00E8B11F4B1F481D601F4B204F1C70204BEF
:109EBC00002110221E6009F09FFE1E4B0020002185
:109ECC00C3E90001013CE4B20326FF2C0DD11A4A70
:109EDC001A48002103B0BDE8F04000F08DB902F043
:109EEC0069FE0028DDD003B0F0BD9DF8063015F8F2
:109EFC0034008DF8046005EBC40223F007038DF8E1
:109F0C00063001A993788DF805303A4602F09AFE96
:109F1C00013CE4B20028D8D0E5E70720E3E700BF16
:109F2C00002A0020F0290020DC290020219D0100BE
:109F3C00E0290020E8290020419E0100084602008B
:109F4C0070B5084D084E00242B789C4201D300209C
:109F5C0070BD3368012113F8340002F0EBFE0134BC
:109F6C00F2E700BFDC290020002A00201FB50021E9
:109F7C00039001AA44F20100CDE9011100F004F8AC
:109F8C0005B05DF804FB000038B572B6FFF750FD64
:109F9C00FFF7BCFB0028FBD1104B114C114D1249A3
:109FAC00E41AE408240444F00100FFF7FBFCD5F8A4
:109FBC00F030DB0700D500BE0C4944F00200FFF77F
:109FCC00F1FCBFF34F8FEA68094B02F4E0621343D4
:109FDC00EB60BFF34F8F00BFFDE700BF30440200C2
:109FEC005844020000ED00E00C4602001846020046
:109FFC000400FA0510B5034649B152B1541E14EAD7
:10A00C00020006D1986019609C80D86010BD0E20AB
:10A01C00FCE70920FAE710B58468C2688388121B34
:10A02C00934208D3C26813400268D154C368013309
:10A03C00C360002010BD0420FCE78268C3689A420C
:10A04C000AD08268838813400268D35C0B708368E3
:10A05C0001338360002070470520704710B5D0E9AC
:10A06C000243D1E90202A04272EB03032CBF012090
:10A07C00002010BD08B50A4800F06DFC094AD2E971
:10A08C000031C018084BD3E9002341F10001904284
:10A09C0071EB030303D210F1807041F1000108BD94
:10A0AC0008230020082A0020802A002037B5054606
:10A0BC000C460A4801A900F0A4FC60B1057044608C
:10A0CC0001A9064800F0C7FC18B1054800F048FC8F
:10A0DC00002003B030BD0420FBE700BF6C2A002039
:10A0EC0008230020294B73B51E7804461EB90026A0
:10A0FC00304602B070BD0028F9D0FFF7BBFFD4E9A1
:10A10C0002239042994139D300230DF107008DF8B9
:10A11C00073000F0CBFA23692BB94FF0FF324FF028
:10A12C00FF33C4E902239DF8070000F0E3FAD4E9F9
:10A13C000530984700250DF107008DF8075000F009
:10A14C00B5FA2369C3B1D4E90212B2F1FF3F08BFDB
:10A15C00B1F1FF3F05D05B1842F10002C4E90232B5
:10A16C0035469DF8070000F0C5FA002DBFD0084811
:10A17C00214601F05CF8BBE71D46F2E7B3F1FF3F67
:10A18C0008BFB2F1FF3FB2D0F1E700BF102A0020A8
:10A19C003446020013B5114B11491868019008237D
:10A1AC001048582200F0F8FB044698B90E4A0F48A4
:10A1BC0001A900F0C1FA044660B90C48012100F075
:10A1CC00ADFB01230A4A0948194600F00FFB094B65
:10A1DC0001221A70204602B010BD00BF30460200AA
:10A1EC00142A00206C2A0020E1A201000823002080
:10A1FC00FFFF7F00102A002030B56AB103684FF0D2
:10A20C00FF344FF0FF355A614A1E5142C3E90245F3
:10A21C0051411961002030BD0720FCE7F7B5044619
:10A22C0000250DF1070017460E468DF8075000F07B
:10A23C003DFAD4E90223B3F1FF3F08BFB2F1FF3F6F
:10A24C0007D1FFF717FF301841F10001C4E90201F3
:10A25C0001259DF8070000F04DFA55B12369A7615F
:10A26C0003B126612146002003B0BDE8F040FFF7A2
:10A27C001DBF284603B0F0BD37B5054600240DF1CF
:10A28C0007008DF8074000F011FAD5E90223B3F16D
:10A29C00FF3F08BFB2F1FF3F06D04FF0FF324FF047
:10A2AC00FF33C5E9022301249DF8070000F022FAD0
:10A2BC0034B12946012003B0BDE83040FFF7F6BEAB
:10A2CC00204603B030BD0000014800F044BB00BF85
:10A2DC00082300202DE9F743064600F027FB40B188
:10A2EC00634AD2E9003113F1807341F10001C2E9F4
:10A2FC0000310021304600F028FB38B15D4C23685A
:10A30C0023B12068FFF7EEFE0023236001213046C5
:10A31C0000F01BFB20B1FFF7ADFE574BC3E900016A
:10A32C005648544F01A900F0A6FB4FF0FF344FF0F4
:10A33C00FF35A0B9DFF848814E4D404600F08DFF47
:10A34C00002800F08680D0E90223B3F1FF3F08BF5C
:10A35C00B2F1FF3F33D1404600F079FFEDE70378CF
:10A36C00012B21D0022B09D1DFF81481404600F0DB
:10A37C006EFF002877D0C0E90245F7E75BB941686A
:10A38C00D1E90223B3F1FF3F08BFB2F1FF3F02D086
:10A39C003B4800F04CFF01A9384800F097FB01A99D
:10A3AC00364800F068FBC4E741683B68994202D12B
:10A3BC0000233B60EFE7324800F052FFEBE72968DF
:10A3CC0091B12968D1E9020182428B412FD22B68CD
:10A3DC00D3E90223B3F1FF3F08BFB2F1FF3F03D033
:10A3EC002968404600F023FF404600F030FFD0E9DA
:10A3FC0002490746FFF73EFE201A69EB01090128C6
:10A40C0079F1000318DBB0F5350F13D3FFF75CFFC0
:10A41C001C4A02441C484FF49603002100F006FA33
:10A42C0090B92B6813B9304600F0D8F92F6003B0FF
:10A43C00BDE8F0832246EDE71348002100F07BFADB
:10A44C003846FFF74FFE01E00D28F9D000232B60B2
:10A45C0073E7084B1B68002BE9D1304603B0BDE80D
:10A46C00F04300F0BFB9094B01221A7093E700BF0B
:10A47C00082A0020882A0020802A00206C2A00202C
:10A48C0034460200FFFFB40008230020102A0020ED
:10A49C000648074A03780749D35C012213B10430FC
:10A4AC0003F09EB90C3002F061BF00BF10230020F6
:10A4BC00FC2C0020B42A00200648074A03780749E0
:10A4CC00D35C012213B1043003F03CB90C3002F020
:10A4DC00FDBE00BF10230020FC2C0020B52A00205C
:10A4EC0037B50578012D0DD0022D30D075B91F4927
:10A4FC001F48FFF7A2FD002834D103B0BDE830405F
:10A50C00FFF7DABF037A1BB9FFF7C2FF03B030BD08
:10A51C004368184C19782046FFF77DFD80B18DF803
:10A52C0000500190144B68461B689847A168E3687B
:10A53C00A2885B1A9A42E7D2104B01221A70E5E707
:10A54C00A268E3689A42F1D08DF80000EAE7C3688C
:10A55C008DF800500193FFF79BFF074B68461B6873
:10A56C009847D3E703238DF80030F6E7B52A00208F
:10A57C00A42A0020902A00208C2A0020A02A002047
:10A58C00F0B51F46234B89B004461A600D460029CE
:10A59C003DD08A8820480968FFF72CFD002834D16B
:10A5AC00AA89A9681D48FFF725FD00282DD11C4E4E
:10A5BC000FCE6D460FC596E80F0085E80F00636956
:10A5CC000693237C174A18488DF81C70003B18BF63
:10A5DC0001238DF81430637C002B14BF0E23002351
:10A5EC008DF81530E3680293A368039323680193F5
:10A5FC0069466368009302F015FA30B90B4B18707A
:10A60C002368013301D0FFF743FF09B0F0BD0720E9
:10A61C00FBE700BF8C2A0020902A0020A42A0020EF
:10A62C0040460200EDA4010010230020A02A0020C7
:10A63C0070B5084D014608482E78FFF7FEFC04461D
:10A64C0036B100232B70FFF723FF08B1FFF78EFC08
:10A65C00204670BDA02A0020902A002010B501468B
:10A66C000E48FFF7D8FC0446A8B90D480D4A0378EC
:10A67C00D35C63B1043003F059F860B90A49074858
:10A68C00FFF7DBFC38B9BDE81040FFF715BF0C3005
:10A69C0002F010FEF1E7204610BD00BFA42A0020F6
:10A6AC0010230020FC2C0020B52A002070B5EFF3FD
:10A6BC00108672B60C4A946801239CB993600B4BBC
:10A6CC000B4DD3F8801029401160C3F88050D3F89B
:10A6DC00841051604FF0FF32C3F88420047006B927
:10A6EC0062B670BD0370FAE7B82A002000E100E002
:10A6FC00FC06FFBD084B9A6810B55AB150B9EFF380
:10A70C00108172B6054A1C6814605C6854609860CD
:10A71C0001B962B610BD00BFB82A002000E100E00C
:10A72C000346405882B028B100225A505B5801931E
:10A73C00019B012002B07047F8B5204B4479204EA4
:10A74C0043F824201F4A204B06EBC4049B1A2279A1
:10A75C00DB081B0432B143F002001C49FFF722F95D
:10A76C000820F8BD02680C88C2F8084590F904501E
:10A77C008A7804795201002DD2B219DB14494F1991
:10A78C0087F8002301226D0904F01F0402FA04F477
:10A79C0041F82540427906EBC201012446F832000B
:10A7AC000C7143F003000B49FFF7FCF80020D8E7CD
:10A7BC00094904F00F040A55ECE700BFCC2A00202D
:10A7CC00C42A0020304402006844020060460200A3
:10A7DC0000E100E08246020014ED00E00368012273
:10A7EC001A607047036801225A60704773B501F113
:10A7FC005005AD000068ADB24FF480348C4000269B
:10A80C00C0F80843C0F84843465101F5A8714559B2
:10A81C00019522F07F42019D40F82120C0F844436D
:10A82C000BB1C0F8044302B070BD00002DE9F74F26
:10A83C000D4622F07F4402684FF4803705F1500634
:10A84C008F408046B60002EB8500C2F84873B6B262
:10A85C00C2F80873D2F8041599464FF0000BD0F8E3
:10A86C004035C0F8401542F806B05B1A9259009278
:10A87C0023F07F43012B009A4FEA850A0CD1264B1B
:10A88C004FF4806043F001039847D8F8003043F848
:10A89C0006B09B590193019BD8F80010D1F80465C0
:10A8AC00C1F84473A31B23F07F43012B1CD11A4B1B
:10A8BC0005F5A875013443F0010341F825404FF428
:10A8CC0080609847D8F80030D3F804359E4209D1FF
:10A8DC00D8F800300020C3F84473C3F8047303B0F5
:10A8EC00BDE8F08F0D20FAE78A44C9F1FF13CAF8CE
:10A8FC004045D1F80405221A013A22F07F4203F5B3
:10A90C007F439342EED3002AE2D10134CAF840458A
:10A91C00D1F804359842DAE7A04602000368022217
:10A92C00C3F8442309B1C3F80423704700684FF4FB
:10A93C008271FFF7F5BE4FF4803303FA01F103681F
:10A94C00C3F84813C3F808137047503189000068E6
:10A95C0089B2FFF7E5BE0368D3F804057047000021
:10A96C0090F90430002B09DB5A09012103F01F0375
:10A97C0001FA03F34032024941F82230704700BF1C
:10A98C0000E100E0024B034A1B681068184700BF47
:10A99C00CC2A0020C42A002030B5054659B1B2FBA0
:10A9AC00F3F403FB1424A0B238B9C5E90010A86075
:10A9BC00AA81EB8130BD0E20FCE70920FAE782B0BA
:10A9CC0050E8022FC188B2EB324F4FF0000317BF93
:10A9DC0092B241EA014142EA014104E04268B2EB21
:10A9EC00324F08BF012340E80212002AE8D18DF84B
:10A9FC0007309DF80730002B0CBF1120002002B04F
:10AA0C00704737B550E8013F9DB2C489254484890D
:10AA1C00A54228BF2D1B0489A54202BFBFF32F8F6F
:10AA2C00002207E0C5EA030540E80154002CE9D1F7
:10AA3C004FF001028DF803200193019A0A609DF8F2
:10AA4C00031001F0FF0321B1006810FA82F003B08B
:10AA5C0030BD1846FBE70A884B889A4209D150E86A
:10AA6C00012FC2EA024240E80123002BF7D101205A
:10AA7C0070470020704737B550E8023F1FFAA3F526
:10AA8C00C488A54202BFBFF32F8F00220DE0C489FA
:10AA9C0025448489A54228BF2D1BC3EA054540E8FF
:10AAAC000254002CE8D14FF001028DF803200193E1
:10AABC00019A0A609DF8031001F0FF0321B10068B0
:10AACC0000EB124003B030BD1846FBE70A884B88F8
:10AADC009A4209D150E8022FC2EA224240E80223EE
:10AAEC00002BF7D1012070470020704701F01F02A6
:10AAFC004B090121914000EB830000F02AB801F0D2
:10AB0C001F0301229A404B0900EB8300D14300F054
:10AB1C0038B84B0901F01F0150F82300C84000F071
:10AB2C000100704710B5034653E8000F0A4643E88E
:10AB3C00002494F0000FF7D110BD10B5034653E874
:10AB4C00000F40EA010243E8002494F0000FF6D114
:10AB5C0010BD10B5034653E8002F42EA010043E84C
:10AB6C00000494F0000FF6D110BD10B5034653E865
:10AB7C00000F00EA010243E8002494F0000FF6D124
:10AB8C0010BD10B5034653E8002F02EA010043E85C
:10AB9C00000494F0000FF6D110BD10B5034653E835
:10ABAC00000F00EB010243E8002494F0000FF6D1F3
:10ABBC0010BD10B5034653E8002F02EB010043E82B
:10ABCC00000494F0000FF6D110BD10B5034653E805
:10ABDC00002FA2EB010043E8000494F0000FF6D123
:10ABEC0010BD0121FFF7A9BF0121FFF7B2BF002162
:10ABFC00FFF7BBBF10B590B1D0E9012301689B1AD8
:10AC0C00DBB20A60013BDBB2FF2B026802D10020F1
:10AC1C00107110BD11684C1C14600B70F2E70E2003
:10AC2C00F7E737B5054600240DF107008DF807400E
:10AC3C00FFF73CFD2A686B68116899420ED9481ED3
:10AC4C00106011F8013CEC68298A01FB0344AB68E5
:10AC5C0011791B1ADBB2994238BF13719DF80700AA
:10AC6C00FFF748FD204603B030BD37B5054600233D
:10AC7C000DF107000C468DF80730FFF717FD2A6819
:10AC8C001368591C1160E968641A298AB4FBF1F441
:10AC9C001C709DF80700FFF72DFD03B030BD8268D6
:10ACAC0010B504462AB1436901680069984700232E
:10ACBC00A36010BD0EB403B5039921B104AB01AA76
:10ACCC00019300F077F802B05DF804EB03B0704725
:10ACDC000A2938B504460D4602D10D21FFF7F8FFBD
:10ACEC00A3682268591CA160D554D4E901329A4258
:10ACFC0004D32046BDE83840FFF7D1BF38BD000073
:10AD0C002DE9F84F9846DDE90A43154682460F4671
:10AD1C000A464FF00109AA420FD2C14538BFC146BD
:10AD2C0013F0010B01D16CB900240126B8F1010F0D
:10AD3C001BD908F1FF386E43F8E709F10109B2FBA2
:10AD4C00F5F2E8E79B070ED5B8F1000F0CBF3026E3
:10AD5C002026A145E9D2013C31465046FFF7B8FF09
:10AD6C00002CF6D1E0E72026F3E7B7FBF6F39D4283
:10AD7C00E1D9DFF83C80B7FBF6F3504618F8031026
:10AD8C0006FB1377FFF7A4FF3346AB42B6FBF5F691
:10AD9C00F1D2BBF1000F02D00CB1A14501D3BDE83B
:10ADAC00F88F20215046013CFFF792FFF4E700BFDB
:10ADBC00A64602002DE9F74F05461746884600299E
:10ADCC0000F03E8118F8011B49B92B7B002B00F0D9
:10ADDC003781284603B0BDE8F04FFFF760BF252947
:10ADEC0040F0B780002698F800302D2B424608F131
:10ADFC00010823D0302B24D02B2B25D000242A2B38
:10AE0C0002F1010123D13B681A1D1B683A601C44F6
:10AE1C000A4613782E2B26D101324FF0000A104629
:10AE2C0010F8011BA1F1300CBCF1090F1DD80A233D
:10AE3C0003FB0A13A3F1300A0246F0E746F00106C1
:10AE4C00D1E746F00206CEE746F00406CBE711F850
:10AE5C00013CA3F130000928DBD80A2202FB0434A0
:10AE6C00303C0A46CBE74FF0000A12F8011B01F008
:10AE7C00FB0068289046F8D0782909D86F290CD89F
:10AE8C00632962D022D8252963D0582900F0888004
:10AE9C0098F80030002B95D197E770390829F7D82E
:10AEAC0001A353F821F000BF27B001009DAE0100B3
:10AEBC009DAE0100BDAF01009DAE01009BAF010036
:10AECC009DAE01009DAE0100ADAF0100642901D023
:10AEDC006929DDD13A68D2F80090111D89EAE9722E
:10AEEC003960A2EBE9724FF0010B092A35DCD3452E
:10AEFC0038BFD3462CB1B9F1000F01DB720700D576
:10AF0C00013CB30702D5BAF1000F03D0F00701D40E
:10AF1C004CBB0024B9F1000F2DDAC9F100092D2129
:10AF2C002846FFF7D5FE06F00302022A04D1BAF137
:10AF3C00000F01D11CBB0024CDE9004653460A2268
:10AF4C0049462846FFF7DCFEA2E73B681A1D197834
:10AF5C003A602846FFF7BCFE9AE70A230BF1010B77
:10AF6C00B2FBF3F2C1E7A345D4D220212846013C21
:10AF7C00FFF7AEFECCE77107D5D52B21D0E7A34563
:10AF8C00DAD230212846013CFFF7A2FED2E739681D
:10AF9C00CDE900460A1D3A6053460A220968D0E7FB
:10AFAC0039680A1D3A60CDE9004653461022F5E790
:10AFBC003B681A1D3A6016F00106D3F8009024D1B4
:10AFCC00B9F1000F03D0484608F092FE0646B44291
:10AFDC001DD809F1FF3919F8011F00293FF458AFAA
:10AFEC002846FFF775FEF6E728460136FFF770FE98
:10AFFC0019F806100029F7D1A642BFF449AF202159
:10B00C002846013CFFF764FEF6E70026F0E7202116
:10B01C002846013CFFF75CFED9E73B681A1D3A60F5
:10B02C00302128461C68FFF753FE78212846FFF78D
:10B03C004FFE00220823CDE900322146102280E782
:10B04C0003B0BDE8F08F00BF2DE9F84FB0F806A0B3
:10B05C004579D2F800B09DF828900AFB05F5043D1F
:10B06C0088460BEB0301A94203F1040488BFA5EB4E
:10B07C00030BB4FBFAF607460AFB1644C2F800B001
:10B08C004EB9AAEB04055D4528BF5D46BBF1000F28
:10B09C0004D1BDE8F88F3F68013EF1E7043408EBBA
:10B0AC0006003C442A46B9F1000F0DD02146ABEB0B
:10B0BC00050B08F078FDDA452E443F6855464FF0F5
:10B0CC00000428BF5D46E1E701462046EFE7FFF7A5
:10B0DC0091BDF8B546790146721E05460023934290
:10B0EC002D6803D30024A64202D8F8BD0133F6E73D
:10B0FC000F682846FFF7B9FD01343946F3E72DE90F
:10B10C00F843068ACD1C0746FFF78BFD043E3544F9
:10B11C000446B5FBF6F5F0B14FF48073EDB28380C5
:10B12C00C680013D076081464FF00008A84512D249
:10B13C003846FFF776FD064648B1637901336371F3
:10B14C0008F10108C9F8000007608146EEE72046C7
:10B15C00FFF7BFFF34462046BDE8F88301210430D9
:10B16C00FFF727BD10B5012104460430FFF72DFD74
:10B17C00C0B220B92046BDE81040FFF7AABF10BDF1
:10B18C001FB503920022009203AAFFF75DFF05B0E2
:10B19C005DF804FB1FB503920122009203AAFFF78E
:10B1AC0053FF05B05DF804FB41DF7047064B10B54B
:10B1BC0000241C70054B1C60BFF35F8F04490548CD
:10B1CC0000F01FF8204610BDD82A0020DC2A0020F1
:10B1DC00C0460200D02A002008B505F02BF818B1A3
:10B1EC00BDE80840FFF7E0BF20BF40BF20BF08BD4F
:10B1FC00836800225A60C3E904229A60DA601A60FC
:10B20C0070470B684A684360934208BF0023016093
:10B21C0008BF43607047436843B102689168526845
:10B22C000B449342436004BF00234360704770B5E6
:10B23C00446806460D46206818B1B36829469847FD
:10B24C0018B923682B60256070BD2468F3E7436848
:10B25C00186808B102681A6070474368186870472C
:10B26C004368186800B97047884203D102681A60B5
:10B27C000120704703460068F4E7000010B50D4943
:10B28C00A1F59472914201D800200FE08C1AE30FC3
:10B29C0003EBE4035B1002EBC30452F8333083423C
:10B2AC0005D802D204F10802ECE7606810BD214613
:10B2BC00E8E700BFCC4B020008B5FFF7DFFF024BFD
:10B2CC00002808BF184608BD8F4A020010B5044676
:10B2DC00C0B2FFF7C3F9204610BD00001F4B1B780E
:10B2EC00F0B5024673B380B379B30868431E1F2BC5
:10B2FC002ED81B4C1B4DDFF870C0002354F8047B78
:10B30C0055F8046BB84203D85CF82370B74205D1EA
:10B31C00012E03D80133072BF0D100231248134C14
:10B32C0050F8230054F82350A8B9114C2368DE07B9
:10B33C0011D523F0010323600E4B2B441360202303
:10B34C000B60F0BD48F20810FBE748F20E10F8E76E
:10B35C0048F20710F5E748F20410F2E7042B00203E
:10B36C00104C0200D84B02002C4C0200F44B020093
:10B37C00E02A0020E42A002013B50024CDE9004087
:10B38C0001A96846FFF7AAFF00B10094009802B02B
:10B39C0010BD0000074B1B7853B130B97047064AFB
:10B3AC00136843F0010313607047044B9842F6D0C6
:10B3BC00704700BF042B0020E02A0020E42A002064
:10B3CC0070B5064E0546002456F8043B0BB12846D2
:10B3DC0098470134042CF7D170BD00BF142B00200A
:10B3EC004388033300EB830399420BD382884FF6D7
:10B3FC00FF739A4208D0038833B18068431C5842CB
:10B40C00584170470220704701207047033080B2CA
:10B41C0040F2FE33984230B51FD8134B1A783AB924
:10B42C001C895D892C440444A4B2B4F5806F0AD9FC
:10B43C001A7DAAB99A8BDC8B2244024492B2B2F5E3
:10B44C00806F0DD801220A801446142202FB0433AB
:10B45C005A8910445881002030BD48F20860FBE73F
:10B46C0048F20660F8E700BF482B00200B4A0C4955
:10B47C005388142000FB0311CB6833B904204968AE
:10B48C0010700122074800F0E3BE07490523137032
:10B49C0002238B80012209680023F3E72C2B002068
:10B4AC00482B0020C8220020102C002007B50023B8
:10B4BC0005490093054A09680548082300F02EFE4B
:10B4CC0003B05DF804FB00BF102C0020544C0200AC
:10B4DC00C822002007B5002301460093034A044804
:10B4EC00082300F01BFE03B05DF804FB4C4C02007B
:10B4FC00C822002013B500230C4600930146084ACD
:10B50C000848042300F00AFE38B9074B142101FB4C
:10B51C00043101230B7402B010BD48F20D60FAE740
:10B52C00484C0200C8220020482B002037B50A489E
:10B53C000A4B42689C8819685388032503330570AD
:10B54C009BB2002000909B0001EB8401044800F0AA
:10B55C00E5FD03B030BD00BF2C2B0020102C0020CB
:10B56C00C822002010B501460448FFF74AFA1C22F5
:10B57C000446002108F040FB204610BDFC2B0020A7
:10B58C0068B10268084B9A4209D14068074B98424F
:10B59C0007D00133984214BF0320012070470320C9
:10B5AC0070470020704700BFDEC0ADDEFE011EF10B
:10B5BC002DE9F0410D460223154F2B80164600F560
:10B5CC00805100F108044FF001088C420ED2236820
:10B5DC0001330BD02046FFF703FF48B10EB186F8BC
:10B5EC000080022809D14FF480632B80BDE8F081E4
:10B5FC00A3683A68934200D93B602B886288033376
:10B60C0013442B806388033304EB8304DDE700BF12
:10B61C00402B002038B5144B14220D4602FB00338E
:10B62C005C682B6804F58051A3B15C88033403EB90
:10B63C0084048C4215D22368013312D02046FFF7C4
:10B64C00CFFE012808D002280BD00028F1D12C60A5
:10B65C00012038BD0834ECE76388033304EB830422
:10B66C00E7E70020F5E700BF482B0020426873B5E0
:10B67C0004460D466AB3234BD9688A4229D31B6909
:10B68C009A4226D812F0030323D11F490089098955
:10B69C0088421ED12068916888421AD11B484168A3
:10B6AC008A4203D901F580518A420DD381698A42BD
:10B6BC000CD901F580518A4208D201222A80B3FAB2
:10B6CC0083F0400902B070BD1A46F7E748F20963EF
:10B6DC00F5E700262E800196288801A9FFF79AFF2E
:10B6EC0030B92B8801339BB2012B2B80F3D9E9E7BE
:10B6FC00019B226899689142EED16360024B1B89D1
:10B70C002381DFE7C82200202C2B0020482B0020AF
:10B71C002DE9F8431C461D4B1B7806460F46154673
:10B72C0073B382B37CB3DFF868804FF01409A3883D
:10B73C00012B02D948F2096020E009FB03F318F849
:10B74C0003302BB9A0882146FFF764FF20B9206095
:10B75C00A3880133A380EAE723681EB19988328855
:10B76C009142EFD11FB119883A889142EAD19A6877
:10B77C00C5E90023074B1B892B810020BDE8F8830A
:10B78C0048F20160FAE748F20460F7E7242B002046
:10B79C00482B00202C2B002008B5074B5888191D6E
:10B7AC00FFF738FF18B1BDE80840FFF7BFBEBDE892
:10B7BC000840FFF75BBE00BF2C2B00202DE9F047A3
:10B7CC009F4FDFF8808288B006463B6823B99E48BD
:10B7DC004146FFF750F938603D6829784B1E052B20
:10B7EC0007D8DFE813F0200074007400060106018E
:10B7FC00600148F20E641422002103A808F0FCF941
:10B80C0041F61D539C4208BF00243B6804941A78EF
:10B81C00023A042A00F2FE81DFE812F0DF01EB01AC
:10B82C000D0215021C022EB1884B00225A604FF4F7
:10B83C000644E0E72B79032B1CD8DFE803F0140255
:10B84C002A35834A1378022B1AD0137D022B4FF022
:10B85C00010317D114214B43D1180020D054486850
:10B86C00FFF738FE03E001232B71FFF71FFE0028C2
:10B87C0000F0B980754B00225A6048F20D64BAE7AB
:10B88C000023E7E7714A13700023536041F61D54FF
:10B89C00B1E770497048002302222B718A80096835
:10B8AC00012200F0D5FCE2E76C4B694C5B88694ADD
:10B8BC0014214B43E11800262E714D681068156059
:10B8CC00958848600D810221E6549180C8E7B5F84F
:10B8DC0014A0AA7DDFF87891AEB1022AEB8806D9C4
:10B8EC00142101FB0A91DA1C088902440A811422F2
:10B8FC0002FB0A99C3F57F43B9F80A20FD331344C0
:10B90C00A9F80A3093E7142303FB0A9318895C689F
:10B91C0004EB8004062A69D8DFE802F0274E36448F
:10B92C001D5A040041F61D54AA7DEB88022A06D943
:10B93C00142101FB0A91DA1C088902440A811422A1
:10B94C0002FB0A99C3F57F43B9F80A20FD3313446F
:10B95C00A9F80A304FE74248424900234360AB69DB
:10B96C000360FFF783FE00285BD00223AB75002336
:10B97C0000930423EA182146374800F0CFFB002837
:10B98C0031D048F20D64CFE72B69002B14BF032391
:10B99C000123AB750023009305F10C02042304F181
:10B9AC000801E9E70123AB750022EB8800922A69B4
:10B9BC009B0004F10C01DFE703290CBF05230623D0
:10B9CC00AB7500230093042305F10802E118D3E7BB
:10B9DC000623AB75234B1988214B5868FFF78AFD5A
:10B9EC0004460028A0D108B0BDE8F08748F20E64E8
:10B9FC009AE7002E7FF41BAF2B79012B34D0022B4E
:10BA0C003FF444AF002B7FF4F4AE02232B710DF105
:10BA1C000A01EB68039303A8CDE90466FFF726FE41
:10BA2C0010B948F20964E6E60498BDF80A10838858
:10BA3C00EB8003882B81FFF75DFD044629E000BFF6
:10BA4C00442B00203C2B0020FC2B0020242B00201E
:10BA5C00482B0020102C0020C82200202C2B00206A
:10BA6C00082B00201C2C0020DFF8F09103AA4B4679
:10BA7C003146A81DFFF74CFE044670B9B9F8041006
:10BA8C000498FFF737FD044648F209639C423FF4E3
:10BA9C00FDAE002C7FF4AFAEA5E708223146484638
:10BAAC0008F0AAF8F0E7002E7FF4C1AE6C4B1A7BBD
:10BABC00B2B11E731A78013A062A3FF69AAE01A16A
:10BACC0051F822F07BBB0100A1BB0100BFBB010000
:10BADC00C5BB0100FFB70100CBBB0100DDBB010002
:10BAEC001A78072AE6D801A151F822F019BB0100F7
:10BAFC00C1BA0100C1BA01003FBB010053BB010038
:10BB0C0077BB010077BB01003BBB01001A8955498B
:10BB1C0001321A8100225A801A730A78B2FA82F220
:10BB2C0052099A720A7DB2FA82F25209DA72012231
:10BB3C0007E04D4958688A884088033202448A805D
:10BB4C0002221A70B6E75C88464A4749142505FB61
:10BB5C0004220868546850608888108102200C60A8
:10BB6C008880002111740622EBE70722E9E79A7A14
:10BB7C0032B9DA7A8AB900221A705A805A6085E68C
:10BB8C00384900229A72CA68002AF2D1097C00292D
:10BB9C00EFD05A80FFF700FE4FE70022DA72314AED
:10BBAC00116A0029E7D192F82420002AE3D001225F
:10BBBC00EFE7FFF7BBFC40E7FFF758FC3DE75A887F
:10BBCC00284B142101FB02335868FFF783FC34E740
:10BBDC0000225A60FFF76AFC2FE701228DF80C2037
:10BBEC001A89ADF818209A88DB68ADF81A200593ED
:10BBFC0010E002228DF80C201A89ADF818209A88D2
:10BC0C00ADF81A20DA689B7D05929A1F5342534176
:10BC1C008DF81C3003A8FFF7D3FB002641461348D0
:10BC2C003E60FEF753FF12480121FEF7CEFF0028BD
:10BC3C007FF4CBADD7E603228DF80C20DA88ADF873
:10BC4C0018201A89D0E704228DF80C20DB88ADF877
:10BC5C001830DFE705238DF80C30DBE7202C0020B3
:10BC6C002C2B0020482B0020102C0020FC2B00201B
:10BC7C000C2C00204068FFF7A1BD000008B505485A
:10BC8C000121FEF78AFF18B9BDE80840FFF796BD01
:10BC9C0008BD00BF0C2C00202DE9F3419846374B12
:10BCAC001B7806460D46002B5CD000295DD0098818
:10BCBC004FF6FF7399425BD06B88002B58D06B68A2
:10BCCC009B0758D14AB92F890DF102013846FFF76D
:10BCDC009DFB30B102B0BDE8F08113885788ADF8F8
:10BCEC00023001A8FFF73EFC044660B9BDF8022003
:10BCFC00234B142101FB023358890338C01B588194
:10BD0C0048F20760E6E780F8008000238375BDF8F1
:10BD1C00023083826B68036101211A48FEF749FFE8
:10BD2C002B882381B8F1030F6B88A38004BF0423F5
:10BD3C00A3754FF0000508BF3368E06008BFA3612E
:10BD4C001148E780658101A9FEF785FE36B1E368ED
:10BD5C0033600E4B75601B89B5723381FFF78EFF14
:10BD6C000020B7E748F20160B4E748F20460B1E79D
:10BD7C0048F20360AEE748F20260ABE7242B0020E8
:10BD8C00482B0020402B0020FC2B00202C2B0020CB
:10BD9C0008B5034607480268042A08D00168064A19
:10BDAC0042F821300121FEF704FF002008BD48F2C3
:10BDBC000B60FBE7182C0020142B00202DE9F04F12
:10BDCC00DFF8048289B01422002103A807F014FFC5
:10BDDC0098F8003003F0FF0200923BB103A8FFF784
:10BDEC00EFFA0027384609B0BDE8F08F08F10400DF
:10BDFC00FEF7F7FE0028F4D1009BDFF8D0A1D3F8B2
:10BE0C00F83F5C1C08BF4FF010234FF0805208BF66
:10BE1C005B6911695269581C08BF02FB01F3CAF82F
:10BE2C0010306B49A3F5405300225046CAF80C3031
:10BE3C0000F042F907460028D4D11C236549664816
:10BE4C00DFF898B18C22FEF7A7FD0323B9463D46D7
:10BE5C0001933C46DAF80C604E443046FFF790FBF9
:10BE6C00012867D0032817D000283DD15C494FF03A
:10BE7C00140C0CFB04FC01EB0C0201F80C005660DA
:10BE8C000CF110020CF1080C0A4430466144FFF727
:10BE9C008FFB45F002054AE03268531C02D0514B2F
:10BEAC009A4239D1321D06F580511068013033D1D8
:10BEBC0004329142F9D1DBF800203AB90222012375
:10BECC00CBF80060ABF8042000930BE01422624323
:10BEDC00434B022099189854434A4E6054800134C5
:10BEEC000881A4B245F0010509F58059B9F5405F08
:10BEFC00B0D1019B012B98BF0025EDB2022D03D0D0
:10BF0C00062D36D0002D3ED1002388F8003048F2A3
:10BF1C000A67C8F8043065E7019B31495A1E93B291
:10BF2C00142262438818019346600320885401341C
:10BF3C00A4B2D9E7009B6BB1294B14226243991828
:10BF4C0002209854DBF800204A60274A088154806C
:10BF5C000134A4B200222549CBF800603046FFF72B
:10BF6C0027FBBBF80420022A0CBF0422082215432D
:10BF7C00BAE7012388F8003003A80023C8F804307E
:10BF8C00FFF71EFA2EE702A8FFF7ECFAC8B101235F
:10BF9C00013D03700A2D09D8DFE805F006080608F4
:10BFAC00070807080F110F000023037102A90A48A4
:10BFBC00FEF751FDFFF762FE14E70323F5E70223BA
:10BFCC00F3E748F207670DE7242B0020C822002076
:10BFDC00384E0200702B0020FC2B0020102C00206F
:10BFEC00482B0020DEC0ADDE2C2B0020142C0020B2
:10BFFC0073B50D460446C8B1C1B10DF10601FFF78A
:10C00C0035FBB0B1BDF806300B486668142202FB54
:10C01C00030001210C30FEF7CCFD63682E600C335D
:10C02C006B600123A372002002B070BD48F2046063
:10C03C00FAE748F20960F7E7482B002013B50446ED
:10C04C00A8B10DF10601FFF711FB98B1BDF8062060
:10C05C000B4B142101FB0233DA6872B1A27A62B184
:10C06C00DA680020013ADA60A07202B010BD48F222
:10C07C000460FAE748F20960F7E748F20560F4E774
:10C08C00482B002002230022FFF706BE18B1032321
:10C09C000022FFF701BE48F20460704707B5ADF807
:10C0AC000600ADF804100DF1060001A9FFF730FBF6
:10C0BC0003B05DF804FB000013B50B46114680B9C4
:10C0CC00104B1148114AC01A0E23C0080093104B94
:10C0DC000004104940F00100FDF77BFC0E2002B07B
:10C0EC0010BD4BB9074B08480B4AC01AC0080E23A9
:10C0FC0000930004064BECE703601B6802B0BDE83C
:10C10C001040184730440200904402005C4C02007E
:10C11C00184E0200614C0200904C02002DE9F743CE
:10C12C00DDF8288088B93E4B3E483F4AC01AC0080B
:10C13C000E243E4B009400043D4940F00100FDF7F5
:10C14C0048FC204603B0BDE8F0834AB9344B35486F
:10C15C00384AC01AC0080E24344B00940004EBE794
:10C16C00D0F800E0BEF1000F09D12D4B2D48324A1A
:10C17C00C01AC00808242D4B00940004DCE74BB90E
:10C18C00274B28482D4AC01AC0080924274B009475
:10C19C000004D1E74768D7F80490B3FBF9F709FB23
:10C1AC0017374FB11E4B1F48254AC01AC008092427
:10C1BC001E4B00940004BFE78F0709D0184B194899
:10C1CC00204AC01AC0081024184B00940004B3E78E
:10C1DC0012F0030F09D0124B12481B4AC01AC008A8
:10C1EC001024124B00940004A6E7C768B9420DD383
:10C1FC0005694C1E1C44AC4208D8CDF82880DEF8EA
:10C20C000C40A44603B0BDE8F0436047044B05481E
:10C21C000E4AC01AC0081024044B009400048BE78B
:10C22C0030440200904402005C4C0200054E0200B7
:10C23C00614C0200DE4C02008A4C02009D4C020054
:10C24C00E44C02000E4D0200264D0200494D020046
:10C25C00F7B580B92A4B2B482B4AC01AC0080E24BC
:10C26C002A4B009400042A4940F00100FDF7B1FB71
:10C27C00204603B0F0BDD0F800C0BCF1000F09D1CE
:10C28C001F4B2048234AC01AC00808241F4B009497
:10C29C000004E8E74AB91A4B1A481F4AC01AC008EA
:10C2AC0009241A4B00940004DDE74768D7F800E036
:10C2BC000EF1FF370F4209D0114B1248174AC01A22
:10C2CC00C0081024114B00940004CCE7C768B94295
:10C2DC000CD305694C1E0EFB0244AC4206D8DCF8AC
:10C2EC001040A44603B0BDE8F0406047044B05483D
:10C2FC000B4AC01AC0081024044B00940004B2E787
:10C30C0030440200904402005C4C0200F24D0200EA
:10C31C00614C02008A4C02009D4C0200704D0200E0
:10C32C00964D020029DF704728DF704770B503680F
:10C33C009E6886B004460D466EB1142200216846F4
:10C34C0007F05AFCA3680593237901952BB1012BB7
:10C35C000DD06846B04706B070BD01238DF8003093
:10C36C0023690293E368039363690493F1E702235F
:10C37C008DF80030E3681B030293F5E7084670471D
:10C38C0000207047024B187A003818BF0120704704
:10C39C00C42C0020034B187A0122B0FA80F05A7496
:10C3AC0040097047C42C002008B510461A4607F007
:10C3BC00FAFB002008BD000008B514220021044837
:10C3CC0007F01AFC0348FEF7FAFA002008BD00BF7C
:10C3DC00C42C0020B42C002010B5094C094B436030
:10C3EC002046FEF7FEFB40B903F024FF06492074FB
:10C3FC001C2306488C22FEF7CFFA002010BD00BF8C
:10C40C00C42C00202C4E0200282C0020B42C002020
:10C41C0038B5234D234C2B7A3BB923492348FEF7DF
:10C42C002AFB206008B9686038BD022324682B728F
:10C43C00237973B1012B24D020460321FFF776FF1B
:10C44C0000232B726B6018491848BDE83840FEF782
:10C45C003DBBD4E90523D21AB2F5805FD4E90310B1
:10C46C0028BF4FF480529208012A38BF0122194488
:10C47C001844FFF757FF50B11128DDD101232B725F
:10C48C00D2E7D4E903031844FFF74EFFF3E72B7C04
:10C49C00002BC9D1BDE83840022000F009B800BF1C
:10C4AC00C42C0020DC2C0020D82C0020B42C002024
:10C4BC0038B5234C237A002B41D0022B09D1032809
:10C4CC0030D0204B00221B68E2601A793AB1012A65
:10C4DC0022D0637C7BBBBDE83840FFF799BFD3E922
:10C4EC0005128D1AB5F5805F94BF521902F5805272
:10C4FC009A619142EDD102284FF0000308BF194612
:10C50C002372104B18BF0D211868FFF70FFF0E494F
:10C51C000E48FEF7DBFADCE71A6901321A615B6937
:10C52C009A42E7E7E3680133082B01D8E360D0E7D0
:10C53C000023E360DFE7BDE8384003F06BBE38BD95
:10C54C00C42C0020DC2C0020D82C0020B42C002083
:10C55C00831E012B01D8FFF7ABBF704700F0FD0322
:10C56C00012B08D1044B00225A74421E50425041F8
:10C57C001874FFF74DBF7047C42C002010B5064C43
:10C58C00201DFEF72EFB28B9637C1BB9BDE81040BB
:10C59C00FFF73EBF10BD00BFC42C00202DE9F341B6
:10C5AC0080460D460F4801A916461F46FEF729FA8C
:10C5BC000446A8B11C22002107F01EFB2D0B012301
:10C5CC00237101A90748C4F80080A760E560666183
:10C5DC00FEF741FAFFF7D2FF002002B0BDE8F08170
:10C5EC000420FAE7B42C00202DE9F7438146884655
:10C5FC00104801A917461E46FEF703FA0446B0B1CF
:10C60C001C22002107F0F8FA00250A9BA36001A95F
:10C61C00C4E9037807482571C4F800906661FEF7F9
:10C62C001AFAFFF7ABFF284603B0BDE8F0830420ED
:10C63C00FAE700BFB42C00204FF08053D3F8300140
:10C64C00A0F10F035842584170470000024AD2F83B
:10C65C000034002BFBD0704700E0014010B5FFF711
:10C66C00EBFF48B14FF080534FF08042D3F8443287
:10C67C00C3F34233C2F83C35FFF7DEFF40B14FF055
:10C68C0080430022C3F80C21C3F81021C3F83825CD
:10C69C00FFF7D2FF002846D04FF08052464BD2F81D
:10C6AC000414C3F82015D2F80814C3F82415D2F8D2
:10C6BC000C14C3F82815D2F81014C3F82C15D2F8A2
:10C6CC001414C3F83015D2F81814C3F83415D2F872
:10C6DC001C14C3F84015D2F82014C3F84415D2F832
:10C6EC002414C3F84815D2F82814C3F84C15D2F802
:10C6FC002C14C3F85015D2F83014C3F85415D2F8D2
:10C70C003414C3F86015D2F83814C3F86415D2F891
:10C71C003C14C3F86815D2F84014C3F86C15D2F861
:10C72C004424C3F87025FFF787FF48B14FF08043CE
:10C73C00D3F80024D20744BF6FF00102C3F80024E1
:10C74C00FFF77AFF38B14FF08042D2F8E43E43F065
:10C75C000F03C2F8E43E4FF01023D3F80022002A56
:10C76C0003DBD3F80432002B22DA144901234FF0F7
:10C77C001020C1F804351524FFF768FFC0F80042FB
:10C78C00FFF764FFC0F80442FFF760FF0023C1F815
:10C79C000435FFF75BFFBFF34F8F0949094BCA689C
:10C7AC0002F4E0621343CB60BFF34F8F00BFFDE791
:10C7BC00054B064A1A6010BD00C0004000E0014065
:10C7CC0000ED00E00400FA05242300200090D003C3
:10C7DC00054A4FF0A043105CD3F8043523FA00F05F
:10C7EC00C04300F001007047584E0200044B1A5C25
:10C7FC00012393404FF0A042C2F80C35704700BFA4
:10C80C00584E0200044B1A5C012393404FF0A04297
:10C81C00C2F80835704700BF584E020008B500201A
:10C82C00FFF7F0FF0120FFF7EDFF0220FFF7EAFF13
:10C83C00BDE808400320FFF7E5BF08B50020FFF76F
:10C84C00D5FF0120FFF7D2FF0220FFF7CFFFBDE895
:10C85C0008400320FFF7CABF074A4FF0A041105C05
:10C86C00D1F804350122824022EA03001340C1F8BA
:10C87C000805C1F80C357047584E020038B5074C06
:10C88C00051E04F1080318BF1C4623682BB11A6857
:10C89C0022605B6828469847F7E738BDE82C0020F3
:10C8AC0020B9054B01225A70FFF7E8BF012802D1CD
:10C8BC00014A9070F8E77047E02C002020B9034B38
:10C8CC0001225A70FFF7DABF704700BFE02C00203E
:10C8DC0038B50E4C2378B3B90D486360A36023615F
:10C8EC00E36000F0E7F8054603F0A4FC08B900F09B
:10C8FC00EDF801232370074BD3F800340BB101235F
:10C90C00A370284638BD8525F5E700BFE02C002034
:10C91C00ADC801000000014037B50D4C00230DF1EE
:10C92C0007008DF80730FDF7C1FEE368013BE360BB
:10C93C00E36833B9074BD3F8005415B900F0D8F8B5
:10C94C00A5709DF80700FDF7D5FE03B030BD00BF04
:10C95C00E02C002000000140012813B50CD0032866
:10C96C0020D038B9134B0122C3F88020BFF34F8F6E
:10C97C00BFF36F8F02B010BD0F4C00230DF10700F9
:10C98C008DF80730FDF792FE23780BB9FFF7A0FF67
:10C99C00E3689DF807000133E3600123A370FDF702
:10C9AC00A9FEE7E700F092F802B0BDE81040FFF7EF
:10C9BC00B3BF00BF00E100E0E02C00201FB50378FE
:10C9CC008DF800304368019383688DF80830C36894
:10C9DC00054A0393054B684653F8213052F8211051
:10C9EC00984705B05DF804FBF42C0020F82C0020CF
:10C9FC001FB503788DF800304368019383688DF878
:10CA0C000830C368054A0393054B684653F8213038
:10CA1C0052F82110984705B05DF804FBF42C002067
:10CA2C00F82C0020F0B5194B90F800C091F81DE0DF
:10CA3C0043F82C20164B16460A6943F82C20154B4C
:10CA4C0003F80CE00C4607460FCC89B06D460FC5B9
:10CA5C0094E80F0085E80F00CDF810C0BEF1000F70
:10CA6C0009D0002E0C4A694608BF3246381D00F02A
:10CA7C009BFD09B0F0BD002E084A694608BF32463E
:10CA8C0007F10C0000F062FBF3E700BFF82C00206C
:10CA9C00F42C0020FC2C0020C9C90100FDC90100A8
:10CAAC0000F18040002382B0036003680193019B76
:10CABC0002B07047044B0246187918B91A6001226B
:10CACC001A71704785207047002D0020074B1A689B
:10CADC00D20704D4C02283F8002301221A604FF03D
:10CAEC0080430122C3F81825704700BF00E100E025
:10CAFC004FF0804208B50223C2F808334FF482701D
:10CB0C00FFF7CEFF0123D360D2F81834DB03FBD43C
:10CB1C0008BD00004FF0804210B5D2F8003153B17F
:10CB2C004FF48070FFF7BCFF0123C2F808330B4BA6
:10CB3C0000201B6898474FF08042D2F8043163B153
:10CB4C004FF48270FFF7ACFF0223C2F80833034B9B
:10CB5C00BDE810401B680120184710BD002D0020B7
:10CB6C0000F1804000F5C040002382B003600368F0
:10CB7C000193019B02B07047800000F1A040D0F8F7
:10CB8C00002722F44032C0F80027D0F8003743EADF
:10CB9C000143C0F800377047054B4FF0FF320728B0
:10CBAC0043F8202084BFC01880F84820704700BF8D
:10CBBC00082D002010B51A4C94F858306BBB4FF070
:10CBCC00FF3222FA03F1C90748BFE11803F1010350
:10CBDC0048BF81F83020202BF3D10021C8B201319D
:10CBEC00FFF7DAFF0C29F9D1042200210D4807F0D8
:10CBFC0003F80D4BC02283F8062340221A604FF431
:10CC0C00BE70FFF7ADFF094B4FF00042C3F8042391
:10CC1C00012384F85830002010BD0820FCE700BF29
:10CC2C00082D00205C2D002000E100E00060004099
:10CC3C00034B93F85800003818BF0120704700BF11
:10CC4C00082D0020F0B5394E331893F93030002BF5
:10CC5C0069DA8D78C5F34005002D0BBF082300233E
:10CC6C000C240824A34201D10420F0BD56F82370F3
:10CC7C00013743D137185CB246F8232087F830408F
:10CC8C0015B9F21882F848008A78550716D4D707D8
:10CC9C0036D5820002F1A042D2F8005725F00205E9
:10CCAC00C2F80057224FC50800F0070C012202FA07
:10CCBC000CF217F805C042EA0C027A558A780D7806
:10CCCC0012F0020225D09B0003F1804303F5C04310
:10CCDC000002D3F8102522F4473222F44072C3F834
:10CCEC0010252D04D3F8102500F4F85005F4403528
:10CCFC0028431043C3F810050020B6E70133B1E711
:10CD0C004D7800F5E0724FF0A047AD0047F8225087
:10CD1C00C8E7083C46FA84F494F8500040EA8515BC
:10CD2C0084F85050E8E708209FE700BF082D00204A
:10CD3C005C2D002038B5204C251895F93020072A99
:10CD4C0018DD083A44FA82F494F850309B09032B0E
:10CD5C000BD14FF0A043D3F81015C14001F00101E5
:10CD6C000231BDE83840FFF707BF012B0CBF022191
:10CD7C000321F6E7D3B2072B1DD8930003F18043B0
:10CD8C0003F5C043D3F8100540F00100C3F81005BB
:10CD9C0002F1400040B2800080B2FFF7E1FE51B1D9
:10CDAC0095F9303054F823302BB1012303FA02F2F9
:10CDBC00024BC3F8042338BD082D0020006000404E
:10CDCC004FF0A043D3F8103523FA00F000F0010027
:10CDDC00704700002DE9F74F00244E4D01944FF49D
:10CDEC008072012102F1804303F5C04390B21B68AD
:10CDFC00012B06D1D5F804330B4202D0FFF7B0FE5D
:10CE0C000C430432B2F5907F4FEA4101EAD1414B19
:10CE1C00D3F87C31012B0CD14FF4BE70FFF7A0FE80
:10CE2C004FF0A04344F00044D3F820250192C3F8FE
:10CE3C002025E3B2D3B1384F00250126344210D05F
:10CE4C00AB0003F1804303F5C043D3F81005D3F8CE
:10CE5C00101557F8253023B1C1F30141C0F304205C
:10CE6C0098470135082D4FEA4606E7D1002C48DAE1
:10CE7C00294D4FF0A048294E4FF00009012716F913
:10CE8C00013B5A1C31D0C3F3C20202A90A44DCB2E2
:10CE9C0012F8042C03F03F0A03F0070307FA03F31C
:10CEAC001A4222D00AF5E073504658F82330C3F3E7
:10CEBC00014BBBF1020F0CBF03210221FFF75CFEFB
:10CECC0007FA0AF3C8F8203505EB0A0393F930305A
:10CEDC0055F823304BB1A109032904D0BBF1020F43
:10CEEC0012D1012901D15046984709F10109B9F134
:10CEFC00040FC4D1D8F820350193C8F82035002B85
:10CF0C00B9D103B0BDE8F08FBBF1030FEDD102290D
:10CF1C00E8E700BF00600040082D0020582D0020DD
:10CF2C00014B1B68184700BF642D00200E4B984224
:10CF3C0037B50C4602D0002003B030BD00230DF1F4
:10CF4C0007008DF80730FDF7B1FB084B1D7915B9BB
:10CF5C0001221C601A719DF80700FDF7CBFB002D18
:10CF6C00E9D01120E8E700BF00200040642D00202C
:10CF7C000023435082B043580193019B02B0704789
:10CF8C000A4610B54FF48E71FFF7F2FF136A9168E1
:10CF9C00C95C136A01331362C0F81C1510BD02463C
:10CFAC0008B500684FF49271FFF7E2FF10684FF478
:10CFBC008471FFF7DDFF136801221A6008BD8B69CD
:10CFCC000A4610B54FF4847123B9FFF7D1FFD0F89E
:10CFDC00183510BDFFF7CCFF536AD168D0F818058F
:10CFEC00C854536A01335362F3E700001FB50123A1
:10CFFC008DF80030044BCDE90110D3E900126846DE
:10D00C00904705B05DF804FB6C2D002030B54D4DFC
:10D01C00D5F804339A0585B051D5D5F82431002BB9
:10D02C004DD04FF492712846FFF7A2FF4FF40173D5
:10D03C00C5F80833444B93F829200AB901226A60D9
:10D04C00404902228DF80020D1F88024C1F88024B8
:10D05C0003929A690292DA6801920022C3E90622CD
:10D06C006846D3E9001290473648D0F81C315BB1C2
:10D07C00354A5169136A99424DD992F82830002BE0
:10D08C0049D11146FFF77CFF2E48D0F84431002BD4
:10D09C0056D04FF4A271FFF76BFF2B4B93F829205E
:10D0AC000AB1012202609A69002A49D0586AD968EB
:10D0BC0000229A6105B0BDE83040FFF797BFD5F864
:10D0CC0004335B07D0D5D5F80831002BCCD01E4CDF
:10D0DC001C482146FFF773FF636AA2699A42C3D1C9
:10D0EC00E369E1684BB1A3612369E3600023606AE3
:10D0FC00E3616362FFF77AFFB6E794F829300BB966
:10D10C0001236B600F4B4FF40172C3F8082300230B
:10D11C00606AA361EEE70B484FF48E71FFF728FFAE
:10D12C005369002BB0D051690291002391688DF89E
:10D13C000030019153616846D2E900139847A3E788
:10D14C0005B030BD002000406C2D00202DE9F843C7
:10D15C00534D90F804802C2303FB0853064693F898
:10D16C002A300C469146002B40F096804D490068C1
:10D17C00FFF7DCFE0746002840F0908022683068FC
:10D18C00511C0BD04FF0A04101239340C1F808353E
:10D19C0002F5E0734FF0030C41F823C061684B1C9F
:10D1AC001FBF01F5E0734FF0A04C4FF0000E4CF890
:10D1BC0023E0A369C0F8243594F814C0637DBCF156
:10D1CC00010F4CEA0303C0F86C35C0F81415C0F815
:10D1DC000C251DD1A268531C1FBF02F5E0734FF044
:10D1EC00A0414FF0000C41F823C0E368591C0BD050
:10D1FC004FF0A04C01219940CCF8081503F5E071D3
:10D20C004FF0030E4CF821E0C0F80835C0F810259B
:10D21C002C2202FB08F2AB18C3F804902369AB5024
:10D22C00B9F1000F20D04FF48E71247FFFF7A0FED0
:10D23C004FF4A2713068FFF79BFE32681A4BC2F8AC
:10D24C000433130B42F307326101002AC9B21EDB0F
:10D25C001648841884F800130121520903F01F03A7
:10D26C0001FA03F340F8223033680422C3F8002596
:10D27C002C2303FB08530022C3E9062283F8292040
:10D28C005A61012283F82A203846BDE8F883084AFF
:10D29C0003F00F03D154E7E70827F5E71127F3E76D
:10D2AC006C2D002019D001008000020000E100E08C
:10D2BC0014ED00E00279044B2C2101FB0233586978
:10D2CC00003818BF012070476C2D00202DE9F84F55
:10D2DC00064690F8048089469246FFF7EBFF044619
:10D2EC0000283CD1204F2C2508FB057B4FF48E7178
:10D2FC00CBF814A0CBF80890CBF820008BF82800C2
:10D30C003068FFF735FE3068012383605946FFF71C
:10D31C0037FEDBF804305D461BBB3068DBF814408D
:10D32C002B6A9C4211D83368D3F81C21002AFBD0FD
:10D33C000122DA6000202C2303FB087700237B6199
:10D34C00BDE8F88F95F828303BB9D0F81C31002B8C
:10D35C00F8D05946FFF714FEE2E70F20EBE7112057
:10D36C00EEE72046ECE700BF6C2D00202DE9F047DE
:10D37C003A4D07792C2303FB075306465C6824B10E
:10D38C0003684FF40170C3F808032C2303FB075305
:10D39C00986950B1D869002841D024B133684FF452
:10D3AC000172C3F80423112436E09A61D9605862E3
:10D3BC00D8612C2303FB075393F829301BB910B900
:10D3CC003046FFF7ECFD4FF02C0808FB075A30688D
:10D3DC00DAF80430002B37D14FF4A271D046FFF7A6
:10D3EC00C7FD3068D0F82491D0F80831D0F844410A
:10D3FC00CBB914B9B9F1000FF3D02C2303FB0755AB
:10D40C000023AB61B9F1000F24D12CBB95F8291086
:10D41C0033680122B1B11A602046BDE8F08719616A
:10D42C00DA610120C5E7B9F1000FE6D1002CE4D197
:10D43C004146FFF7C4FDDAF82430DAF818209A4296
:10D44C00CFD8DAE75A60E7E74FF40173C0F804333A
:10D45C000024E1E70324DFE70F24DDE76C2D002037
:10D46C000023435082B043580193019B02B0704794
:10D47C001FB501238DF80030044BCDE90110D3E921
:10D48C0000126846904705B05DF804FB982D00200B
:10D49C007FB5434AD2F82461002E60D010464FF479
:10D4AC009271FFF7DDFF02238DF80030D2F8803443
:10D4BC00C2F880340393D2F83C350293394BDA68C6
:10D4CC0001920022C3E906226846D3E90012904774
:10D4DC003348D0F8443173B14FF4A271FFF7C0FF59
:10D4EC00304B9A693AB10022C3E90622D968D0F8C8
:10D4FC003C05FFF7BDFF2A48D0F82031ABB14FF403
:10D50C009071FFF7ADFF0123C360264B5A6962B1DE
:10D51C00D0F84C150291002299688DF800200191E9
:10D52C005A616846D3E9001290471D48D0F858312B
:10D53C009BB14FF4AC71FFF793FF1A4B5A6962B170
:10D54C00D0F84C150291002299688DF800200191B9
:10D55C005A616846D3E90012904704B070BDD2F806
:10D56C001031002BB4D04FF488711046FFF778FFC0
:10D57C000C4BD2F83C0599698842A9D1DC69D96871
:10D58C0064B1D2F8005225F02005C2F800521A6995
:10D59C009C61DA60DE61FFF76BFF99E79C61FAE74B
:10D5AC0000200040982D00202DE9F8435A4E90F8A9
:10D5BC000480242303FB0863044693F820300D46B3
:10D5CC009146002B40F0A38054490068FFF7AEFC55
:10D5DC000746002840F09D802A682068511C0BD01B
:10D5EC004FF0A04101239340C1F8083502F5E073D8
:10D5FC004FF0030C41F823C069684B1C1FBF01F5A9
:10D60C00E0734FF0A04C4FF0000E4CF823E0AB69E8
:10D61C00C0F8243595F814C06B7DBCF1010F4CEAB1
:10D62C000303C0F86C35C0F80C25C0F814151DD1D7
:10D63C00AA68531C1FBF02F5E0734FF0A0414FF0D6
:10D64C00000C41F823C0EB68591C0BD04FF0A04CD8
:10D65C0001219940CCF8081503F5E0714FF0030E49
:10D66C004CF821E0C0F80835C0F81025242202FB44
:10D67C0008F2B318C3F804902B69B350B9F1000F3A
:10D68C002FD04FF488712A7FFFF7EAFE20684FF401
:10D69C009071FFF7E5FE20684FF49271FFF7E0FE02
:10D6AC0020684FF4A271FFF7DBFE4FF4AC712068D9
:10D6BC00FFF7D6FE23681A49C3F80413190B43F37A
:10D6CC0007335201002BD2B21CDB1648C51885F863
:10D6DC00002301225B0901F01F0102FA01F140F85D
:10D6EC00231023680822C3F80025242303FB0866B3
:10D6FC000023C6E906337361012386F820303846CF
:10D70C00BDE8F883084B01F00F015A54E9E70827EC
:10D71C00F5E71127F3E700BF982D00209DD40100F9
:10D72C001003420000E100E014ED00E00279044B2C
:10D73C00242101FB02335869003818BF01207047BF
:10D74C00982D002001F06043B3F1005F2DE9F04704
:10D75C000646884692463BD190F80490FFF7E6FFC8
:10D76C000446002836D11D4F3068242505FB097569
:10D77C004FF49071C5F814A0C5F80880FFF770FE3F
:10D78C004FF4AC713068FFF76BFE33686A69A968B7
:10D79C00C3F84415C3F8482501229A606A68DAB9BF
:10D7AC00D3F82021D3F858011AB90028F8D00F204B
:10D7BC0007E00028FBD10122DA60D3F85821002AB7
:10D7CC00FBD0242303FB097700237B61BDE8F087A2
:10D7DC001020FBE71120F9E72046F7E7982D0020F1
:10D7EC00F8B501F06043B3F1005F04460F465ED11B
:10D7FC000379304D242101FB0351496821B10068A4
:10D80C004FF40476C0F80863242000FB03539E6990
:10D81C0056B1D869002839D021B123684FF404726D
:10D82C00C3F80423112030E09A61DF60DE612068C8
:10D83C004FF48871FFF714FE20684FF4A271FFF7C4
:10D84C000FFE2368C3F83475C3F8382516BB0122C4
:10D85C001A602479242202FB045252680ABBD3F8C2
:10D86C001011D3F84421D3F82401114302D100281C
:10D87C00F5D00A46242303FB04550023984218BF15
:10D88C0003209A42AB6118BF0F20F8BD1F61DA610B
:10D89C000126CCE7D3F8002242F02002C3F8002284
:10D8AC00D7E74FF40472C3F804230020EDE71020EF
:10D8BC00EBE700BF982D002008B5094B1B7853B13E
:10D8CC000020FEF79FFF0120FEF79CFFBDE80840FB
:10D8DC000320FEF797BFBDE80840FEF79FBF00BFCF
:10D8EC00BC2D0020F8B57A4C237805461BB10023DB
:10D8FC002370FFF7E1FF172D00F28780DFE805F0BA
:10D90C000C1717425364757F878C878C949999995F
:10D91C009999C3C8D0D8E3E3FFF7CEFF6D48FCF765
:10D92C00ABFC6D4B002204461A702046F8BD00205B
:10D93C00FEF74EFFF0B10020FEF764FF022D0CBF86
:10D94C004FF4E1644FF47A64634B1D7000254FF47F
:10D95C0000464FF47A7029464FF4FA620023E4FB38
:10D96C00060105F0F9FE2A460146BDE8F840594883
:10D97C00FCF754BCFEF73AFF022D0CBFC8244FF441
:10D98C00C874E1E70020FEF723FF40B10020FEF74A
:10D99C0039FF4FF44874504B03221A70D6E7FEF748
:10D9AC0025FFC824F7E70020FEF712FF38B100204E
:10D9BC00FEF728FF4FF47A64474B0422EDE7FEF79D
:10D9CC0015FF4FF4C874F7E70020FEF701FF48B1CC
:10D9DC000020FEF717FF404B05221A7040F6CD4190
:10D9EC000022C2E7FEF702FFF5E70020FEF734FF46
:10D9FC00394B06221A70002240F26661B5E700200E
:10DA0C00FEF7F4FE344B07221A7000248DE7012038
:10DA1C002070FEF721FFEEE701202070FEF71CFFBF
:10DA2C0000224FF40051A0E7FEF707FF2A4B0C220F
:10DA3C00EAE72A482A4EFCF71FFCD5F111050446EB
:10DA4C001CD0D8B9012D13D0C820454321464FF422
:10DA5C0000474FF47A704FF4FA620023C5FB0701BC
:10DA6C0005F07AFE224601461C48FCF7D7FB04461B
:10DA7C000220FEF7BBFE0123337056E70220FEF7AF
:10DA8C00C1FE0023F8E7FFF717FF134B1222BBE789
:10DA9C00FFF712FF0020FEF7A9FE0F4B1322B3E78E
:10DAAC00FFF70AFF0120FEF7A1FE0B4B1422ABE798
:10DABC00FFF702FF0020FEF799FE0120FEF796FE0D
:10DACC00054B1522A0E7FEF7B8FE034B1D709CE733
:10DADC00D02D002048230020D12D00202823002009
:10DAEC00BC2D0020044B1B6813F0010301D0FFF781
:10DAFC00F9BE1846704700BFCC2D0020032811D862
:10DB0C00012A0AD101290FD100F10E02D2B20D4B1C
:10DB1C0000EB40001A54002070470129F7D002296D
:10DB2C0004D049B1072070470022F8E7054B00EB01
:10DB3C00400018444270EEE7024B00EB40001844E2
:10DB4C008270E8E7BD2D002008B5012202210020DB
:10DB5C00FFF7D4FF08B1072810D1072202210120BA
:10DB6C00FFF7CCFF08B1072808D100210A2208468C
:10DB7C00FFF7C4FF10B1072808BF002008BD000044
:10DB8C000388102B10B502D0112B1ED010BD1A4CCF
:10DB9C002168B1B901220846FFF7B0FF08B1072888
:10DBAC0024D1072202210120FFF7A8FF08B1072882
:10DBBC001CD1042202210020FFF7A0FF08B1072886
:10DBCC0014D1236801332360E0E70B4A1368013B4F
:10DBDC001360002BDAD1FFF7B7FF0028D6D0074B24
:10DBEC001B68002BD2D0BDE810401847034B1B68B4
:10DBFC00002BE6D09847E4E7D82D0020D42D002048
:10DC0C0076DF70477ADF70477CDF70477FDF7047C5
:10DC1C008FDF7047B1DF704738B502784368012A4F
:10DC2C00054607D0032A05D01AB913B90E4B0122A9
:10DC3C001A7038BD002BFCD10C480D4CAA680D494C
:10DC4C00241AE408240444F003042046FBF7AEFE37
:10DC5C00AA8909492046FBF7A9FEEA89074920460B
:10DC6C00BDE83840FBF7A2BE553600203044020018
:10DC7C00584402007E4E0200904E0200A04E02005C
:10DC8C00FCF774B90388212B13B5044642D007D88E
:10DC9C00112B2FD0132B4AD0102B0CD002B010BD4F
:10DCAC00522B52D0562B01D03B2BF7D1A0881321ED
:10DCBC00FFF7A6FF42E0294B29482A49C01AC008A1
:10DCCC00000440F00300FBF76DFE0720FFF70AFF8E
:10DCDC0008B1FCF74BF9244BA1882448198002F0B9
:10DCEC0019F808B1FCF742F9214802B0BDE8104020
:10DCFC0005F0DCBE194B1A481E49C01AC0080004B6
:10DD0C0040F00300FBF74EFE174B1B484FF6FF721B
:10DD1C001A80EAE7194B80881B88ADF8043001A9FA
:10DD2C00FFF776FF0028B9D0FCF720F9B6E70E48CC
:10DD3C00002300881A468521FFF768FF0028ADD024
:10DD4C0002B0BDE81040FCF711B9074800231A4691
:10DD5C0019460088FFF75EFFF0E700BF3044020071
:10DD6C0058440200B34E0200762300206C3600208B
:10DD7C00BD4E0200CA4E0200D74E02006051020096
:10DD8C00042808B50ED101290DD10E4B0E480F49B0
:10DD9C00C01AC008000440F00300FBF703FE0C4B54
:10DDAC0000221A7008BD0029FCD1064B064809490F
:10DDBC00C01AC008000440F00300FBF7F3FD044B4D
:10DDCC000122EEE73044020058440200E74E020004
:10DDDC0054360020FE4E020008B503784BB9054BB3
:10DDEC003B211888FFF70CFF18B1BDE80840FCF781
:10DDFC00BDB808BD7623002008B548B1032816D15C
:10DE0C000220FFF76FFE90B1BDE80840FCF7AEB8FA
:10DE1C00074B08480849C01AC008000440F003002A
:10DE2C00FBF7C0FD0321054801F09CFAEBE708BDA8
:10DE3C003044020058440200144F02005C350020AC
:10DE4C000D4B4A881B889A4214D10A8840F67723D6
:10DE5C009A420FD18B88094A09480A49033B9BB265
:10DE6C001380094A801AC00800041A4640F00300C7
:10DE7C00FBF7A5BD704700BF76230020742300205C
:10DE8C0058440200374F020030440200FCF76EB8D1
:10DE9C002DE9F0410024C0B006460F46FC22214675
:10DEAC0001A8009405F0A8FEDFF83C802546BC4292
:10DEBC0001DAFB2D0DD90D4B0D480E49C01AC008C7
:10DECC0000046A4640F00300FBF770FD40B0BDE86B
:10DEDC00F081335DC5F580710DEB0500424605F010
:10DEEC0005FE01340544E2E7534F020030440200C2
:10DEFC0058440200DB4F020010B5174B174C184961
:10DF0C00E41AE408240444F003042046FBF74AFD19
:10DF1C0010220021134805F06FFE134B13491448CF
:10DF2C001960012202F022FB08B1FCF71FF811491D
:10DF3C000F4802F04DFB08B1FCF718F809490C48E2
:10DF4C0002F055FB08B1FCF711F820460A49BDE870
:10DF5C001040FBF727BD00BF3044020058440200BC
:10DF6C00574F02004C35002078360020105A020022
:10DF7C00102F002078230020624F0200F0B5224BB6
:10DF8C00224D234FED1AED082D0445F00305C3B0C7
:10DF9C0006460C460A4628461E49FBF707FDFFF7C6
:10DFAC00ABFF4FF4807200211B4805F025FE4FF4A7
:10DFBC008072042102A805F01FFE2246314602A8F9
:10DFCC0005F0F1FD4FF48073214630463B60FFF7BE
:10DFDC005FFF002CB8BF0F3424F00F040E4B0097DA
:10DFEC0004F1100202A90D4802F014FB0C49024680
:10DFFC0004462846FBF7DAFC39680748FFF748FF68
:10E00C00204643B0F0BD00BF30440200584402002B
:10E01C0044350020774F020044340020102F00209C
:10E02C008E4F0200F0B50678012E85B000F091807D
:10E03C00022E00F08E80002E67D1494D494C286885
:10E04C002044FCF7F5FA48492A680978531C2B60E0
:10E05C0000295CD1032B0BDDA11811F8020CA528AB
:10E06C0006D111F8011CA62902D1A25CA72A05D061
:10E07C003E4A1288934248DB032B3FDD3C4B3D4C20
:10E08C003D493E4EE41AE408240444F003042046BF
:10E09C00FBF788FC29683348FFF7FAFE2B683848F1
:10E0AC00033B009332462F4B4FF4807103F006FC78
:10E0BC00334A34492046FBF779FC31683048FFF786
:10E0CC00E7FE31682E48FFF759FF08B1FBF74EFF0A
:10E0DC002D4C2E4E2E4F2368ADF80E302D48338824
:10E0EC000DF10E02394601F091FF082806D01328D5
:10E0FC00F1D0052802D008B1FBF738FF1948F422FB
:10E10C00002105F079FD00232B6005B0F0BD511EF8
:10E11C00605C0D28F9D1A25C0A2AF6D1022BEDDD48
:10E12C00134B14486654C01AC008000422461A49FE
:10E13C0040F00300FBF73AFC29682046023900F056
:10E14C005FFB00F029FB20220146144805F02BFD53
:10E15C00D4E7406805B0BDE8F040FBF707BF00BF4F
:10E16C004835002044300020543600207423002011
:10E17C003044020058440200A64F020040340020F4
:10E18C0040330020C64F0200443500207623002087
:10E19C004434002098230020DE4F02007823002016
:10E1AC002DE9F047234B244CE41AE408240444F0F2
:10E1BC0003090D460A4686B0204906464846FBF739
:10E1CC00F5FB15F00F0A09D044F001001C49FBF7D0
:10E1DC00E9FB0924204606B0BDE8F087194FDFF8AB
:10E1EC006880FFF789FE4FF480725146384605F07F
:10E1FC0003FD4FF4807329463046C8F80030FFF712
:10E20C0047FECDE90378CDE90165104B1049009329
:10E21C005246104B0968104802F026FA0F49024684
:10E22C0004464846FBF7C2FBD8F800103846FFF707
:10E23C002FFECFE73044020058440200F64F020094
:10E24C000D5002003C3200203C3300204C350020A5
:10E25C007836002078230020DC2D00202950020085
:10E26C002DE9F74303780546002B48D1324B334C4C
:10E27C003349E41AE408240444F003063046FBF75F
:10E28C0091FBAA8A2F493046FBF790FBA98A286993
:10E29C002D4DFFF785FF2B682C490746024630466B
:10E2AC00FBF78DFB17B13846FBF760FE2A68284F49
:10E2BC000023002A26DC03B12A60264F2649DFF80A
:10E2CC009C80DFF89C903046FBF770FB2B6800932A
:10E2DC003A461F4B21484FF4807103F091FB3B6889
:10E2EC00204902463046FBF76AFB39681B48FFF7AA
:10E2FC00CFFD002644F001043B689E4209D303B0D5
:10E30C00BDE8F083511EC85D1F28D4D801230A46EE
:10E31C00CFE718F80600FCF7A1F9054648B111281B
:10E32C00F7D0024649462046FBF740FB2846FBF750
:10E33C001DFE0136E0E700BF3044020058440200E5
:10E34C0041500200735002003C3300208D500200FB
:10E35C003C32002038320020B95002003831002005
:10E36C0005510200D850020008B50849084801F0D0
:10E37C0004FC08B1FBF7FAFD0548F72101F00CFC91
:10E38C0018B1BDE80840FBF7F1BD08BD4DDE01003A
:10E39C005836002008B50748FDF7FAFC08B1FBF722
:10E3AC00E5FDFDF70BFD18B1BDE80840FBF7DEBD40
:10E3BC0008BD00BF25DC010008B5FEF739FC20B90B
:10E3CC00FEF7F8FB08B1FBF7D1FD084840F23332F9
:10E3DC000121FBF75DFD08B1FBF7C8FDFBF7B0FDB4
:10E3EC0018B1BDE80840FBF7C1BD08BD682300208B
:10E3FC0070B5874D0FCDB0B005AC0FC495E80300D8
:10E40C00844B854A01934FF4807384E80300CDE973
:10E41C0003230293814A072301A905A8FCF7B0F84E
:10E42C0008B1FBF7A3FD4FF480410020FBF71CF96A
:10E43C0008B1FBF79BFDFBF757F8FBF7ABFE08B1F8
:10E44C00FBF794FDFFF7B8FF754C764A764D4FF00D
:10E45C00A043A41AD3F81035E408240413F0100FC9
:10E46C0044F00304C3F3001640F0CB806F49204600
:10E47C00FBF798FA2E7002F03FF908B1FBF776FD26
:10E48C00FCF794FE08B1FBF771FDFFF783FF00F07A
:10E49C00E9F800F07DF9054600F07EF920220146EE
:10E4AC00634805F080FB01F047FE08B1FBF75EFD09
:10E4BC00002305A90120059301F010FF08B1FBF71B
:10E4CC0055FD05A801F0D8FF08B1FBF74FFD11234E
:10E4DC0028468DF8043005F00BFC294682B201A8C1
:10E4EC00FFF792FB08B1FBF741FD0822002105A8BC
:10E4FC0005F082FB1023ADF814303C23ADF8163038
:10E50C000023ADF8183005A84FF4C873ADF81A30D5
:10E51C00FFF778FB08B1FBF729FDFFF725FF454B0B
:10E52C004548059305A901F0E3FB08B1FBF71EFD77
:10E53C00042200210DEB020005F05EFB3F4B40482E
:10E54C00019301A901F0E8FC08B1FBF70FFDAC2227
:10E55C00002105A805F050FB02238DF814304FF470
:10E56C00A063384AADF816300123ADF8603019922B
:10E57C008DF89030402244F25063CDE92723324885
:10E58C00324B2E9305A900F07BFE08B1FBF7EEFC95
:10E59C002D48012100F071FE1C22002105A805F078
:10E5AC002BFB00234FF4A032CDE90532ADF822301D
:10E5BC004FF4F0228DF82430254B07920A93032256
:10E5CC00244B8DF8202005A80B9301F003F908B11A
:10E5DC00FBF7CCFC204805F069FA20492046FBF7F4
:10E5EC00E1F9FFF789FC1848032100F0BBFE08B1E4
:10E5FC00FBF7BCFCFBF78AF80028FBD1FCF7ECFD21
:10E60C00F8E717492046FBF7CDF901232B7032E7C9
:10E61C00645102007C3600207C37002031E0010080
:10E62C00584402003044020054360020E74E0200E9
:10E63C00782300208DDC01006C3600206DE2010097
:10E64C0098230020702300205C35002005DE01009B
:10E65C00E5DD010099DE0100305102003551020068
:10E66C00FE4E020030B589B00023CDE90533CDE96B
:10E67C000133079305AA01AB47F2100148F21000D1
:10E68C00FDF70CFD1B4C1C4BE41AE408240444F06D
:10E69C000304D0B9CDE9030003A905A8FDF7A8FC34
:10E6AC0008B1FBF763FC04991448302205F07BFA9F
:10E6BC00124A13492046FBF779F905A8FDF7BEFC71
:10E6CC0005469DB1FBF752FC10E00E492046FBF7C6
:10E6DC0069F90D4905A8FDF7D5FC48F20663984287
:10E6EC000546EED109492046FBF75CF9284609B0EE
:10E6FC0030BD00BF5844020030440200BC2300204F
:10E70C007C510200B9510200C8520200165202009C
:10E71C0010B5044605F0ECFA0F280AD90848094B45
:10E72C0009491B1ADB081B040F2243F00200FBF7FC
:10E73C003DF92146054805F092FA002010BD00BFB6
:10E74C00304402005844020043520200BC23002013
:10E75C00202908B50A460CD0094B0A480A49C01AA8
:10E76C00C008000440F001002022FBF71FF909202B
:10E77C0008BD0146054805F016FA0020F8E700BF71
:10E78C00304402005844020088520200CC2300207E
:10E79C0000487047BC23002000487047CC23002061
:10E7AC007FB50023CDE90333CDE90133059303AAEB
:10E7BC0001AB47F2100148F21000FDF76FFC18B9DD
:10E7CC00034903A8FDF762FC07B05DF804FB00BF2A
:10E7DC00C8520200BFF34F8F0549064BCA6802F4BA
:10E7EC00E0621343CB60BFF34F8F00BFFDE700BF68
:10E7FC0000ED00E00400FA057CDF70477DDF704718
:10E80C00F0B5B64BB64EB749F61AF608360446F0D4
:10E81C00030502469DB004462846FBF7C7F8B249EB
:10E82C000822204605F076F9014618BB1022039009
:10E83C000DEB020005F0E0F9132204F1080103A826
:10E84C0005F086F9A94903AA2846FBF7AFF803A8F7
:10E85C00FFF75EFF112303A88DF8083005F048FA86
:10E86C0003A982B202A8FFF7C7FFA14805F01EF961
:10E87C000020D5E09F490822204605F04BF9C0B98D
:10E88C009D492846FBF78EF8142302A903A8ADF87E
:10E89C000830FFF7B3FF002840F09C81BDF808302A
:10E8AC001CAA134403A903F8640C944805F0FEF861
:10E8BC00DBE793490C22204605F02CF90146A0B960
:10E8CC0003901C2204A805F097F904F10C011F22F7
:10E8DC0003A805F03DF928468A4903AAFBF766F818
:10E8EC00202103A8FFF734FFBFE787490822204601
:10E8FC0005F010F988B928468449854DFBF752F884
:10E90C007B4805F0D3F8642445F001054FF47A40B8
:10E91C00A847013CFAD1FFF75DFF7E490B22204648
:10E92C0005F0F8F830B97C492846FBF73BF87B49F1
:10E93C007B48BBE77B490E22204605F0EBF878B903
:10E94C00CDE90300ADF81400092204F10E0103A86F
:10E95C0005F0FEF8744903AA2846FBF727F884E76C
:10E96C0072490E22204605F0D5F8074698B9704931
:10E97C002846FBF717F86022394604A8039705F0E0
:10E98C003BF96C4A2823642103A805F0AFF803A8CF
:10E99C0005F08CF869E768490A22204605F0BAF8B8
:10E9AC0098B9CDE90300ADF8140004F10A0109226D
:10E9BC0003A805F0CDF82846604903AAFAF7F6FF3C
:10E9CC005F4903A805F06DF94FE75E490822204620
:10E9DC0005F0A0F8002836D1CDE90300ADF81400FD
:10E9EC00092204F1080103A805F0B2F8564928469B
:10E9FC0003AAFAF7DBFF524903A805F052F90028E5
:10EA0C007FF433AF51492846FAF7CCFFFFF7C8FE25
:10EA1C0040B128464E49FAF7C5FF4E4805F046F876
:10EA2C001DB0F0BD28464C49394DFAF7BBFF3048B4
:10EA3C0005F03CF8642445F001054FF47A40A847F2
:10EA4C00013CFAD167E745490822204605F062F8F7
:10EA5C0038BB0023092204F1080103A8CDE90333D4
:10EA6C00ADF8143005F074F83D49284603AAFAF7BE
:10EA7C009DFF334903A805F014F900283FF4F5AEC7
:10EA8C00384903A805F00DF900283FF4EEAE3649DD
:10EA9C0003A805F006F900283FF4E7AE334903AAB2
:10EAAC005AE733490822204605F034F80746002877
:10EABC0064D128462F49FAF775FF3946602204A81D
:10EACC00039705F099F8012300932B4A01974FF413
