:020000021000EC
:10600000006000205D630100A5630100A76301003B
:10601000A9630100AB630100AD6301000000000053
:10602000000000000000000000000000AF6301005D
:10603000B163010000000000B3630100B56301001B
:1060400031B40100B7630100C9C00100B7630100AA
:10605000B763010000000000C5BF0100B763010085
:10606000B7630100B7630100B7630100B7630100C4
:10607000B7630100B7630100B7630100B7630100B4
:10608000B76301009D910100B763010000000000AB
:10609000B7630100B76301009D240200B7630100EC
:1060A000B7630100B76301000000000000000000BA
:1060B00000000000000000000000000000000000E0
:1060C00000000000000000000000000000000000D0
:1060D00000000000000000000000000000000000C0
:1060E00000000000000000000000000000000000B0
:1060F00000000000000000000000000000000000A0
:10610000000000000000000000000000000000008F
:10611000000000000000000000000000000000007F
:10612000000000000000000000000000000000006F
:10613000000000000000000000000000000000005F
:10614000000000000000000000000000000000004F
:10615000000000000000000000000000000000003F
:10616000000000000000000000000000000000002F
:10617000000000000000000000000000000000001F
:10618000000000000000000000000000000000000F
:1061900000000000000000000000000000000000FF
:1061A00000000000000000000000000000000000EF
:1061B00000000000000000000000000000000000DF
:1061C00000000000000000000000000000000000CF
:1061D00000000000000000000000000000000000BF
:1061E00000000000000000000000000000000000AF
:1061F000000000000000000000000000000000009F
:10620000354936480A1A02D0072291438D4634494F
:1062100034480A1A06D00722914381F309880222E2
:1062200082F3148830483149314A00F044F831484B
:106230003149324A00F03FF831483249324A00F0E1
:106240003AF832483249334A00F035F83248334997
:10625000334A00F030F833483349344A00F02BF821
:1062600033483449344A00F026F83448344900228F
:1062700000F02CF833483449002200F027F8334866
:106280003349091A082902DB002202604160314AC1
:1062900090471F481F49884205D00268043003B464
:1062A000904703BCF7E700208646EC46002000211B
:1062B000294A9047FEE7884207D0521A05D0037852
:1062C00001300B700131013AF9D17047884202D098
:1062D00002700130FAE7704700600020005800208B
:1062E000006000200060002038E302000020002051
:1062F00058210020BC630100BC630100A49D020082
:1063000038E302000020002000200020B89E020098
:10631000B89E0200B89E0200B89E0200B89E02001D
:10632000B89E0200B89E0200B89E020037E3020049
:1063300090E402005821002058210020582100201C
:106340007035002070350020703500207035002039
:10635000703D0020736301009DF1010000F02CB836
:106360000B484FF00701884385460A488047FFF7EE
:1063700047BF094809490A4A884207D0521A05D03E
:10638000037801300B700131013AF9D170470000F8
:1063900000600020A1A70100B89E0200002000209C
:1063A00000200020FEE7FEE7FEE7FEE7FEE7FEE74F
:0C63B000FEE7FEE7FEE7FEE7FFF7D2BFC6
:1063BC0000B585B00190019B002B0AD0074B43F030
:1063CC0001030393019B9B010293039B0298984743
:1063DC0000E000BF05B05DF804FB00BFD09E0200DA
:1063EC0000B583B00190019B002B0AD04FF47A705A
:1063FC00FFF7DEFF019B013B0193019B002BF5D1C5
:10640C0000E000BF03B05DF804FB08B509F05CF8D0
:10641C0000BF08BD00B589B0039002910192019BA9
:10642C00002B33D00023079303230693029A079B78
:10643C001344019A1946002008F0F6FF0590079ABC
:10644C00059B13440793019A059BD31A0193059B53
:10645C00002B13D10F4B1B7883F00103DBB2002B05
:10646C0013D10120FFF7BCFF069B013B0693069B53
:10647C00002B03D1074B00221A7007E0054B0122B9
:10648C001A70019B002BD1D100E000BF00BF09B0F6
:10649C005DF804FB5821002000B585B003900291F3
:1064AC00054B00934023054A0299039800F012F81B
:1064BC0000BF05B05DF804FB216401005C210020E5
:1064CC0082B0019000BF02B0704782B0019000BF53
:1064DC0002B0704700B5A1B00590049103920293ED
:1064EC00049803F011FD039B1593029B1693002354
:1064FC00179300238DF8603000231993229B1A9375
:10650C0000231F930FA91F9B0822049803F0BAFDC8
:10651C0008231F93119B1293BDF84030ADF84C30FB
:10652C00BDF84230ADF84E3000238DF851309DF857
:10653C003C3003F00303DBB2012B26D10F9BC3F3DA
:10654C0095231C939DF83C30C3F3C203DBB28DF84A
:10655C005030BDF83C30C3F38313DBB21B931B9B51
:10656C009A0009A91F9B049803F08CFD1B9B9B00B0
:10657C001F9A13441F9312AA09A915AB0093134633
:10658C001B9A1C9800F0B2FE2FE09DF83C3003F0F3
:10659C000303DBB2022B28D1BDF83E30C3F38913C1
:1065AC009BB21E939DF83C30C3F3C203DBB28DF853
:1065BC0050301E9B082B28BF08231D9307A91F9B37
:1065CC001D9A049803F05EFD1F9A1D9B13441F93A4
:1065DC001E9A1D9BD31A1E9315AB12AA07A81D99C0
:1065EC0000F026FF1E9B002BE3D1049803F09BFCCC
:1065FC0000BF21B05DF804FB82B00190019BDB6809
:10660C0001225A7100BF02B07047000000B583B080
:10661C004FF0FF330193FFF7F8FE0421054800F01B
:10662C0081FD01900348FFF7E7FF00BF03B05DF861
:10663C0004FB00BFA89E020000B583B0019000913E
:10664C00019B1B681B6800990198984700BF03B019
:10665C005DF804FB00B583B00190019B1B685B687F
:10666C000198984700BF03B05DF804FB00B583B0F8
:10667C000190019B1B689B680198984700BF03B071
:10668C005DF804FB82B001900B468DF80330019B42
:10669C00DB689DF803201A7100BF02B0704782B00E
:1066AC000190019BDB681B79184602B0704782B0E1
:1066BC000190019BDB6801225A7100BF02B0704748
:1066CC0082B00190019BDB685B79184602B0704781
:1066DC0000B585B0019000910C4B00221A700C484B
:1066EC0003F076FB0390039B002B01D0039B08E087
:1066FC00084803F013FD084A084BD31ADB08029331
:10670C000023184605B05DF804FB00BF04230020ED
:10671C00049E0200E89E0200A89E0200209E020039
:10672C00024A034BD31ADB0818467047A89E020096
:10673C00209E020000B587B001900B468DF8033007
:10674C009DF80330002B1FD0FFF7EAFF04900023C5
:10675C00059313E0059B9B000E4A13440393039B84
:10676C001B881A46019B1B689A4204D1019B059A0F
:10677C001A60002309E0059B01330593059A049BDD
:10678C009A42E7D3052300E00023184607B05DF8D2
:10679C0004FB00BF0020002000B585B001900B4623
:1067AC008DF803309DF8032001AB11461846FFF716
:1067BC00C1FF0346002B07D1019BDB00054A1344A4
:1067CC000393039B1B6800E00023184605B05DF89B
:1067DC0004FB00BF209E020084B001900B468DF894
:1067EC000330019BDB00174A134402939DF80330DE
:1067FC00013B032B1CD801A252F823F019680100AD
:10680C0021680100296801003368010002238DF81A
:10681C000F3011E004238DF80F300DE0029B1B7933
:10682C008DF80F3008E0029B5B798DF80F3003E098
:10683C0000238DF80F3000BF9DF80F30184604B0C0
:10684C00704700BF209E020084B00190009100238D
:10685C008DF80F30019B1B7803F00403DBB2002B87
:10686C0024D0019B1B78C3F30103DBB2012B02D0B4
:10687C00022B0CD017E0009B1B68019A1288C2F304
:10688C008312D2B213449A1C009B1A600BE0009B3B
:10689C001B68019A5288C2F3891292B213449A1C53
:1068AC00009B1A6000BF01238DF80F309DF80F304C
:1068BC00184604B07047000000B58BB00023ADF84B
:1068CC0026303B4802F046FE3A4802F043FE3A4B73
:1068DC009B680493394B1B680693049A069B1340E0
:1068EC0002339B00344A13440433089304AB194617
:1068FC000898FFF7A9FF0346002B09D0049A069BC2
:10690C00134002339B002C4A134404330893EDE7E5
:10691C0000BF0023079311E0049B5A1C0492069AB3
:10692C001340079A920001A90A44234902339B00A1
:10693C000B445B681360079B01330793079B012B88
:10694C00EAD99DF80430C3F30103DBB2012B10D05C
:10695C00022B1CD1BDF80A30ADF82630BDF806303C
:10696C00C3F389139BB203339A08049B1344049317
:10697C000EE0BDF80A30ADF82630BDF80430C3F394
:10698C008313DBB21A46049B1344049300E000BF4C
:10699C00084802F0EBFD0590059B002B02D0049BF0
:1069AC00054A9360BDF8263018460BB05DF804FB21
:1069BC001C2700201827002004230020082000207A
:1069CC0000B585B00021074802F03BFD0390039B06
:1069DC000293029B83F310030193019B184605B0AD
:1069EC005DF804FB2027002000B589B003900291CC
:1069FC0001920093039B1B0C0693FFF7E1FF07909A
:106A0C00079B1904009B5A1C0A9B1340069A0A43C5
:106A1C001B4902339B000B445A60009A0A9B13409B
:106A2C0002339B00164A134404330593039B03F073
:106A3C000703D9B2059A137861F3C5031370019B50
:106A4C0003F00F03D9B2059A138861F389131380ED
:106A5C00029BC3F31501059A136861F39F2313601E
:106A6C00059A1378012161F301031370059A1378C9
:106A7C006FF38203137000BF09B05DF804FB00BF15
:106A8C000423002000BF704700B58DB00390029125
:106A9C0013468DF80730039B02330A9301238DF8BC
:106AAC00273000238DF81B300DF11B03184602F024
:106ABC0009F8404B5A68029B1A603F4B1A683D4BD1
:106ACC0099683C4B5B68CB1A134401330B9314E06D
:106ADC0001213A4802F010FDFFF7EEFE07900799EE
:106AEC00364802F009FD344B1A68324B9968314B29
:106AFC005B68CB1A134401330B930A9A0B9B9A4293
:106B0C00E6D89DF82730002B48D0002305939DF83C
:106B1C000730002B17D09DF81430012262F30103CB
:106B2C008DF814309DF8143043F004038DF81430B4
:106B3C00039B03F00F03DAB2BDF8143062F3891330
:106B4C00ADF8143016E09DF81430022262F3010304
:106B5C008DF814309DF8143043F004038DF8143084
:106B6C00039BC3F309039AB2BDF8163062F38F137B
:106B7C00ADF816300F4B5A680F4B1B68134002339D
:106B8C009B000C4A134404330893059A089B1A6023
:106B9C00084B5A680A9B1344064A53609DF81B30F5
:106BAC00184601F099FF9DF8273018460DB05DF896
:106BBC0004FB00BF04230020082000202027002015
:106BCC0000B58BB00590049103920293204B1B6887
:106BDC00079306AB012219460298FFF755FF0346AF
:106BEC00002B24D0069B023309930023089311E059
:106BFC00089B9B00039A1A44099B591C09910799FD
:106C0C000B401268134902339B000B445A60089BDB
:106C1C0001330893089A029B9A42E9D3069A079B80
:106C2C0000931346029A04990598FFF7DDFE094B71
:106C3C001B78002B05D000BF00F06AF80346002B30
:106C4C00FAD1FFF71FFF00BF0BB05DF804FB00BFCC
:106C5C00082000200423002000B583B0019000918F
:106C6C000023002200990198FFF7AAFF00BF03B090
:106C7C005DF804FB00B587B0039002910192019B73
:106C8C00059305AA012302990398FFF799FF00BF0A
:106C9C0007B05DF804FB00B587B003900291019238
:106CAC000093019B0493009B059304AA0223029971
:106CBC000398FFF785FF00BF07B05DF804FB00B534
:106CCC008BB00390029101920093019B0593009B62
:106CDC0006930C9B07930D9B08930E9B099305AA97
:106CEC00052302990398FFF76BFF00BF0BB05DF80B
:106CFC0004FB0000054B9A68044B5B689A420CBF7E
:106D0C0001230023DBB21846704700BF0423002088
:106D1C0000B599B0FFF7EEFF0346002B01D000231E
:106D2C00C0E19B4B0022C3F81824BFF34F8F00BF68
:106D3C00974B9B680493974B1B681093049A109B7A
:106D4C00134002339B00924A1344043311930023E3
:106D5C0017930023169300230F9304AB1946119835
:106D6C00FFF772FD0346002B19D0894BD3F818346A
:106D7C00002B14D1864B5A68049B9A4205D8844B3D
:106D8C005B68834A936000238CE1049A109B134048
:106D9C0002339B007E4A134404331193DDE7002336
:106DAC00159311E0049B5A1C0492109A1340159AE7
:106DBC00920001A90A44764902339B000B445B689C
:106DCC001360159B01331593159B012BEAD99DF884
:106DDC00043003F00303DBB2022B40F09C80BDF8BF
:106DEC000630C3F389139BB20D93BDF80630C3F381
:106DFC0089139BB2502B28BF50239BB20C930C9B36
:106E0C00C3F309039AB2BDF8063062F38F13ADF8E1
:106E1C0006300C9B08330B939DF80430C3F3C2036C
:106E2C00DBB20F930B995C4802F0DDFF1790179BB8
:106E3C00002B00F0D380179803F066F801A9169B7D
:106E4C000822179803F00AF9169B08331693049B33
:106E5C00DA43109B134001339B000A930C9A0A9B54
:106E6C009A4242D90A9B002B08D0049A109B1340DB
:106E7C0002339B00464A1344043300E0474B08930B
:106E8C000A9B002B02D00A9BDBB201E00C9BDBB20D
:106E9C008DF81F300A9B002B01D0404B00E00023E3
:106EAC0006930A9B002B06D00C9BDAB20A9BDBB232
:106EBC00D31ADBB200E000238DF817309DF81F20A9
:106ECC00169B0899179803F0C9F89DF81F30169A6D
:106EDC0013441693069B002B16D09DF81720169B77
:106EEC000699179803F0BAF80EE0049A109B134019
:106EFC0002339B00264A134404330993169B0C9AC5
:106F0C000999179803F0AAF80D9B03339A08049B70
:106F1C001344049362E09DF8043003F00303DBB2E6
:106F2C00012B5BD1BDF80430C3F38313DBB2062B0A
:106F3C0028BF0623DAB2BDF8043062F38913ADF82A
:106F4C000430BDF80430C3F38313DBB202330E9369
:106F5C009DF80430C3F3C203DBB20F930E9B9B006E
:106F6C0019460D4802F03FFF1790179B002B35D0A8
:106F7C00179802F0C9FF01A9169B0822179803F075
:106F8C006DF8169B08331693002315931DE000BF74
:106F9C000423002008200020049E0200102300205F
:106FAC00049B5A1C0492109A134002339B003F4AD4
:106FBC001344191D169B0422179803F04FF8169BC7
:106FCC0004331693159B01331593BDF80430C3F3AA
:106FDC008313DBB21A46159B9342E1D3179B002B0C
:106FEC0040D0324BD3F810341493304BD3F81834C0
:106FFC00002B1BD0179802F096FF4DE000238DF864
:10700C004F301498FFF75CFB0346002B02D0012392
:10701C008DF84F309DF84F30002B03D017991498F2
:10702C00FFF70AFB149BDB681B681493149B002B63
:10703C00E4D1179802F077FF00238DF803300DF19F
:10704C000303184601F03EFD184BD3F81834002BFF
:10705C0002D1049B154A93609DF80330184601F049
:10706C003BFD19E0114BD3F81034129306E0129843
:10707C00FFF7FCFA129BDB681B681293129B002B28
:10708C00F5D10B4A0B4BD31ADB081B0443F002035C
:10709C0009491846FFF7E0FDFFF72CFE034683F085
:1070AC000103DBB2184619B05DF804FB0423002081
:1070BC00489E0200209E0200F89E020000B585B09A
:1070CC000023039323E0164BD3F8103402930123CF
:1070DC008DF807300FE00298FFF7E1FA03461A46E5
:1070EC00039B934203D100238DF8073006E0029BEB
:1070FC00DB681B680293029B002BECD19DF80730D8
:10710C00002B01D0039B07E0039B01330393039BEC
:10711C00092BD8DD4FF0FF33184605B05DF804FBA2
:10712C000423002000B585B001900B468DF8033088
:10713C00FFF7C4FF0390039BB3F1FF3F01D1039B07
:10714C0022E0039BDBB219460198FFF79BFA104B28
:10715C00D3F81034002B08D10D4A019BC2F810341F
:10716C00019BDB6800221A600DE0094BD3F8103448
:10717C00DA68019BDB6812681A60054BD3F810348F
:10718C00DB68019A1A60039B184605B05DF804FB96
:10719C000423002000B583B00C4BD3F810340193BA
:1071AC000A4B01221A7009E00198FFF780FA019846
:1071BC00FFF750FA019BDB681B680193019B002BC6
:1071CC00F2D100BF00BF03B05DF804FB0423002024
:1071DC0082B00190009100BF02B0704710B584B02E
:1071EC0003900291039BDB88002B0AD0039BDB8866
:1071FC001A461F4B009313461E4A1F49029802F071
:10720C0083FA039B1B7A052B2ED0039B5B7A002BF6
:10721C0012D0039B9B881A46039B1B7A1946104677
:10722C00FFF7DAFA03461A46144B53F822301A4683
:10723C001349029802F068FA039B1B6819460298DE
:10724C00FFF7C6FF039B1B7A1A460E4B53F82240DE
:10725C00039B9B8800211846FFF79EFA03462246A3
:10726C000949029802F050FA00BF04B010BD00BFEB
:10727C002C9F02003C9F0200749F020020200020E3
:10728C008C9F02000C200020909F020000B585B05E
:10729C000390029113468DF80730039B1B7A052B44
:1072AC000FD0039B5B7A002B06D00D4B1B681A4644
:1072BC000C49029802F028FA0B49029802F024FAC1
:1072CC0007E09DF80730002B03D00749029802F025
:1072DC001BFA029802F000FA00BF05B05DF804FB3F
:1072EC00202000208C9F02009C9F020030B58BB0A8
:1072FC0007900691059204930E9B1B7B8DF827300B
:10730C000E9B00221A730E990498FFF767FF059BDA
:10731C00062B7FD801A252F823F000BF4573010061
:10732C004F7301005F7301007373010091730100CF
:10733C00B9730100E973010007990E9802F0E4F9A2
:10734C0069E0069B1B681A4607990E9802F0DCF957
:10735C0061E0069B1A68069B04331B6807990E981C
:10736C0002F0D2F957E0069B1A68069B04331968A1
:10737C00069B08331B6800930B4607990E9802F086
:10738C00C3F948E0069B1968069B04331868069BF2
:10739C0008331B68069A0C3212680192009303465C
:1073AC000A4607990E9802F0AFF934E0069B18686C
:1073BC00069B04331C68069B08331B68069A0C3228
:1073CC0012680699103109680291019200932346C4
:1073DC00024607990E9802F097F91CE0069B1C6870
:1073EC00069B04331D68069B08331B68069A0C32F7
:1073FC0012680699103109680698143000680390D9
:10740C000291019200932B46224607990E9802F0A6
:10741C007BF900E000BF00220E990498FFF736FFBD
:10742C000E9B9DF827201A7300BF0BB030BD00BF18
:10743C0000B587B00390029101920093029B082B38
:10744C0060D8009B1B7B8DF81330009B00221A73B5
:10745C0000990198FFF7C2FE0023059314E0059AEA
:10746C00029B9A4209D2039A059B13441B781A4635
:10747C002649009802F048F903E02549009802F0EB
:10748C0043F9059B01330593059B072BE7D921494C
:10749C00009802F039F90023059326E0059A029B27
:1074AC009A421BD2039A059B13441B788DF8123019
:1074BC009DF812307E2B0AD89DF81230184611F028
:1074CC00B7FF0346002B02D09DF8123000E02E23AC
:1074DC001A461149009802F017F903E00F49009879
:1074EC0002F012F9059B01330593059B072BD5D9A7
:1074FC00012200990198FFF7C9FE009B9DF813200B
:10750C001A7300E000BF07B05DF804FBA09F0200F7
:10751C00A89F0200AC9F0200B09F0200B49F020023
:10752C0084B003468DF807309DF807305B08DBB25A
:10753C001A460D4B9B5C8DF80F309DF8073003F00D
:10754C000103002B04D09DF80F301B09DBB204E0C3
:10755C009DF80F3003F00F03DBB28DF80E309DF861
:10756C000E30184604B070473827002084B003460C
:10757C000A468DF8073013468DF806309DF8073013
:10758C0003F00103002B01D00F2300E0F0238DF852
:10759C000F309DF8073003F00103002B04D09DF849
:1075AC0006301B01DBB201E09DF806308DF80E3081
:1075BC009DF807305B08DBB21A46114B9A5C9DF8BC
:1075CC0007305B08DBB219469DF80F301340DAB276
:1075DC000B4B5A549DF807305B08DBB21A46084B2C
:1075EC009A5C9DF807305B08DBB219469DF80E30AB
:1075FC001343DAB2024B5A5400BF04B0704700BFB9
:10760C003827002084B003468DF8073000230393FD
:10761C0010E00D4B1A68039BDB0013440293029B92
:10762C001B789DF807209A4201D1029B09E0039B2D
:10763C0001330393054B1B781A46039B9342E8DBFB
:10764C000023184604B07047242700202827002068
:10765C0000B585B003460A468DF8073013468DF801
:10766C0006309DF807301846FFF7CCFF0390039BBC
:10767C00002B0BD0039B5B68002B07D0039B5B6834
:10768C009DF806109DF807201046984700BF05B0DE
:10769C005DF804FB2DE9F04F87B003460A468DF8E0
:1076AC000F3013468DF80E309DF80F301846FFF74B
:1076BC0037FF0346042B00F2C28001A252F823F0DC
:1076CC00E17601005577010071770100A177010087
:1076DC00B77701009DF80E30002B00F0AD809DF8BF
:1076EC000F3001211846FFF741FF00238DF81730AA
:1076FC000DF11703184601F0E5F99DF80F104FF046
:10770C0001024FF00003A1F12004C1F1200003FAA3
:10771C0001F702FA04F4274322FA00F0074302FAB5
:10772C0001F6494BD3E9002346EA020100913B43A1
:10773C000193454BDDE90012C3E900129DF81730A7
:10774C00184601F0C9F977E09DF80E30002B01D0F6
:10775C00022200E000229DF80F3011461846FFF778
:10776C0005FF6CE09DF80E30002B0CD09DF80F300F
:10777C0003211846FFF7FAFE9DF80F300121184639
:10778C00FFF766FF5BE09DF80F3001211846FFF70D
:10779C00EDFE54E09DF80E30002B4FD19DF80F30CC
:1077AC0004211846FFF7E2FE48E09DF80E30002B4E
:1077BC0006D09DF80F3003211846FFF7D7FE3EE0A8
:1077CC009DF80F3000211846FFF7D0FE9DF80F30C2
:1077DC0000211846FFF73CFF00238DF816300DF101
:1077EC001603184601F06EF99DF80F104FF00102C8
:1077FC004FF00003A1F12006C1F1200003FA01F5BE
:10780C0002FA06F6354322FA00F0054302FA01F4B7
:10781C006FEA04086FEA05090B4BD3E9002308EA69
:10782C00020A09EA030B084BC3E900AB9DF81630BA
:10783C00184601F051F902E000BF00E000BF00BFA4
:10784C0007B0BDE8F08F00BF3027002000B583B033
:10785C000648074B1B685B080022194600F014FE13
:10786C00019000BF03B05DF804FB00BF482000206E
:10787C002C27002000B587B001900023059328E049
:10788C001C4B1A68059BDB0013440493049B1B7868
:10789C00184604F0EFFA03468DF80F30049B5B7822
:1078AC00012B0CBF01230023DBB21A469DF80F30CD
:1078BC009A420CBF012300238DF80E30049B1B78D9
:1078CC009DF80E2011461846FFF7E4FE059B013388
:1078DC000593094B1B781A46059B9342D0DB074B4B
:1078EC00D3E90023134301D0FFF7B0FF00BF07B06B
:1078FC005DF804FB242700202827002030270020D7
:10790C0000B585B001900B468DF80330019BDBB2BE
:10791C001846FFF777FE0390039B1B78184604F07C
:10792C00A9FA03468DF80B30039B5B78012B0CBF37
:10793C0001230023DBB21A469DF80B309A420CBF90
:10794C00012300238DF80A309DF80A30002B06D055
:10795C00054BD3E90023134301D1FFF777FF00BF99
:10796C0005B05DF804FB00BF3027002000B58BB0DC
:10797C0003900B4601928DF80B30019B092B01D81B
:10798C00072367E004F08EF9034683F00103DBB2B2
:10799C00002B09D004F022F90990099B0893089B4D
:1079AC00002B01D0089B55E02C4A039B13602C4AFA
:1079BC009DF80B3013702B4A019B13601022002191
:1079CC00294811F043FE29494FF000024FF0000303
:1079DC00C1E9002331E09DF80B30DB00039A13441E
:1079EC00079303238DF8143000238DF815309DF880
:1079FC0016306FF300038DF816309DF816306FF3C8
:107A0C0041038DF816309DF816306FF382038DF814
:107A1C001630079B9B788DF81530079B1B78184602
:107A2C0005AB134A194604F049F90990099B0693D2
:107A3C00069B002B01D0069B0CE09DF80B305A1EC8
:107A4C008DF80B20002BC6D10A4A00210A4800F001
:107A5C00F5FC034618460BB05DF804FB2427002008
:107A6C00282700202C270020382700203027002032
:107A7C000D79010081780100C49F020000B583B02C
:107A8C00002301930CE00C4B1A68019BDB001344A0
:107A9C001B780121184604F081F9019B01330193F5
:107AAC00064B1B781A46019B9342ECD300231846D5
:107ABC0003B05DF804FB00BF24270020282700201A
:107ACC0086B003900291019201238DF817309DF836
:107ADC001730204A039B13601E4A029B53601D4AB9
:107AEC00019B9360039B44F20102934212D0039BCF
:107AFC0044F20202934220D1019B164AD360154BEB
:107B0C00DB681B68134A9361124BDB685B68114A94
:107B1C00D36112E0019B0F4A13610E4B1B699B68EA
:107B2C000C4A53610B4B1B691B680A4A9361094B46
:107B3C001B695B68074AD36100BF72B600BF00BF08
:107B4C009DF81730DBB2002BFAD162B600BF00BF34
:107B5C0006B070474827002000B583B00290009112
:107B6C00019244F2010071466A4600F003F803B03A
:107B7C0000BD00BF30B58BB007900691059272B670
:107B8C0000BFFFF707FB00BFFFF7C2F80346002B4F
:107B9C00FAD1079B44F2020293422FD0079B44F286
:107BAC000202934269D8079B44F20102934237D0F8
:107BBC00079B44F2010293425FD8079B012B05D02F
:107BCC00079B41F2010293420CD056E0394A3A4BE2
:107BDC00D31ADB081B0443F0010338491846FFF79E
:107BEC003BF857E0334A344BD31ADB081B0443F001
:107BFC00010333491846FFF72FF84BE0059B099317
:107C0C002C4A2D4BD31ADB081B0443F00100099BB3
:107C1C005B681A46099B1B682A49FFF73CF839E058
:107C2C00059B0893234A244BD31ADB081B0443F00F
:107C3C000104089B9D68089B9B68184602F02CFB6E
:107C4C0003461846089B5B681946089B1B68069AF6
:107C5C0002920193009103462A461B492046FFF7E6
:107C6C002EF8144A144BD31ADB081B0443F00103FF
:107C7C0016491846FEF7F0FF0CE00E4A0E4BD31ACD
:107C8C00DB081B0443F00103069A11491846FEF762
:107C9C00F1FF00BF0F4B1B6803F00103002B00D05A
:107CAC0000BE059A06990798FFF70AFF00BF0BB0B4
:107CBC0030BD00BF489E0200209E0200C89F0200FB
:107CCC00E89F02000CA0020028A0020050A00200B5
:107CDC0064A00200F0ED00E084B00190019B9B6871
:107CEC000393019BDA68039BD31A184604B07047C0
:107CFC0082B001900B468DF80330019B1A68019BF2
:107D0C00DB68019989880B4013449DF803201A7095
:107D1C00019BDB685A1C019BDA6000BF02B0704704
:107D2C0084B003900B460192ADF80A30039B1A689D
:107D3C00039B9968BDF80A300B44039989880B4062
:107D4C0013441A78019B1A7000BF04B0704700B539
:107D5C0083B001900091009A00210198FFF7E0FF99
:107D6C00019B9B685A1C019B9A6000BF03B05DF895
:107D7C0004FB84B0039002911346ADF80630029BCD
:107D8C00002B01D10E231DE0BDF80630002B07D0CF
:107D9C00BDF806305A1EBDF806301340002B01D03A
:107DAC0009230FE0039B029A1A60BDF80630013BD1
:107DBC009AB2039B9A80039B00229A60039B002239
:107DCC00DA600023184604B0704700B583B0019008
:107DDC000B468DF803300198FFF77EFF0246019B9E
:107DEC009B889A4207D89DF8033019460198FFF7F3
:107DFC007FFF002300E00423184603B05DF804FB6A
:107E0C0000B583B0019000910198FFF765FF034620
:107E1C00002B05D000990198FFF799FF002300E093
:107E2C000523184603B05DF804FB00002DE9F04370
:107E3C0083B0144801F092F9034600221C46154603
:107E4C00114BD3E9002314EB020845EB0309CDE9F0
:107E5C0000890E4BD3E90023DDE90001904271EB60
:107E6C00030307D2DDE9002312F1807643F100070A
:107E7C00CDE90067DDE900231046194603B0BDE8E3
:107E8C00F08300BF68200020702700207827002096
:107E9C0088B001900091019B0793009B0693079B70
:107EAC00D3E90223CDE90423069BD3E90223CDE9D0
:107EBC000223DDE90423DDE90201904271EB0303A7
:107ECC002CBF01230023DBB2184608B0704700001A
:107EDC00F0B585B0019000238DF80F303F4B1B7827
:107EEC00002B75D0019B002B72D0FFF79FFF019BDD
:107EFC00D3E90223904271EB030358D300238DF88E
:107F0C000D300DF10D03184600F0DCFD019B1B69D3
:107F1C00002B06D101994FF0FF324FF0FF33C1E92E
:107F2C0002239DF80D30184600F0D6FD019B5B69CD
:107F3C00019A92691046984700238DF80C3003ABD8
:107F4C00184600F0BFFD019B1B69002B1AD0019B4A
:107F5C00D3E90223B3F1FF3F08BFB2F1FF3F11D0C9
:107F6C00019BD3E902230199096900200C460546BF
:107F7C00161943EB0507019BC3E9026701238DF832
:107F8C000E3002E000238DF80E309DF80C301846B0
:107F9C0000F0A2FD9DF80E30002B19D0019B194664
:107FAC000F4802F00EF901238DF80F3010E0019B01
:107FBC00D3E90223B3F1FF3F08BFB2F1FF3F07D073
:107FCC00019B1946064802F0FCF801238DF80F308E
:107FDC009DF80F30184605B0F0BD00BF6C2700208F
:107FEC008CA0020030B58BB0019000910D23099349
:107FFC00009B00221A70019BD3E90223CDE90623D2
:10800C00FFF714FFDDE90623141A63EB0105CDE934
:10801C000445DDE90423012A73F1000318DB049BFA
:10802C00B3F5350F05D300F0B7FA0246114B1344E4
:10803C0000E0069B03934FF49603039A00210E482D
:10804C0000F098FF0990099B002B05D101230EE04D
:10805C000021094801F05CF8099B0D2B06D1019811
:10806C00FFF736FF03461A46009B1A70002318468A
:10807C000BB030BDFFFFB4006820002000B583B00A
:10808C00044802F0C7F80190019B184603B05DF854
:10809C0004FB00BF8CA0020000B583B0044802F0C2
:1080AC00CFF80190019B184603B05DF804FB00BFAC
:1080BC008CA0020000B583B0FFF7E0FF0190019B9C
:1080CC00002B06D001994FF0FF324FF0FF33C1E97E
:1080DC000223019B002BEFD100BF00BF03B05DF862
:1080EC0004FB0000054BD3E9002312F1807043F12F
:1080FC000001024BC3E9000100BF7047702700204C
:10810C0000B583B00190084B1B68002B07D0064BC1
:10811C001B681846FFF7DCFE034B00221A6000BFF9
:10812C0003B05DF804FB00BF6827002000B583B0E6
:10813C000190FFF77BFE02460B460349C1E9002381
:10814C0000BF03B05DF804FB7827002000B587B0B2
:10815C000190FFF7A1FF049000238DF81730049BCA
:10816C00002B58D0049BD3E90223B3F1FF3F08BF87
:10817C00B2F1FF3F02D1FFF781FF54E02E4B1B6899
:10818C00002B03D101238DF817301DE0049BD3E99C
:10819C000201294B1B68D3E90223904271EB0303C4
:1081AC0012D201238DF81730234B1B68D3E902231D
:1081BC00B3F1FF3F08BFB2F1FF3F05D01E4B1B6868
:1081CC0019461E4801F0FDFF9DF81730002B2BD0EF
:1081DC00FFF754FF04900DF10F0319460498FFF7B5
:1081EC0001FF0346002B12D0134B1B68002B02D14E
:1081FC00019800F005FE104A049B13609DF80F30A7
:10820C0083F00103DBB2002BA3D000BF0FE00A4BBD
:10821C0000221A609DE7084B1B68002B06D10198C1
:10822C0000F0FBFD02E094E700BF00E000BF00BFE0
:10823C0007B05DF804FB00BF682700208CA002008B
:10824C0000B587B001902B4A03AB1946104601F0DC
:10825C0082F8049045E0049B1B78022B2BD0022B58
:10826C002FDC002B02D0012B11D02AE0049B5B6881
:10827C00D3E90223B3F1FF3F08BFB2F1FF3F22D095
:10828C00049B5B6819461C4801F09BFF1BE0049B98
:10829C005A681A4B1B689A4203D1184B00221A6079
:1082AC0012E0049B5B681946134801F0D1FF0346AA
:1082BC008DF8173008E0FFF7FDFE114B01221A7004
:1082CC0002E000BF00E000BF0A4A03AB19461046AB
:1082DC0001F05AF8074A03AB1946104601F03BF877
:1082EC000490049B002BB6D100BF00BF07B05DF813
:1082FC0004FB00BFD82700208CA0020068270020B8
:10830C006C27002000B583B00190019800F0F3FEBB
:10831C000346002B01D0FFF7E5FE0021019800F089
:10832C0008FF0346002B02D00198FFF7E9FE01215C
:10833C00019800F0FEFE0346002B02D00198FFF7D7
:10834C00F5FE0198FFF77CFF0198FFF7FFFE00BFD9
:10835C0003B05DF804FB000008B5024800F00BFF09
:10836C0000BF08BD6820002000B585B00346009111
:10837C008DF80730114A02AB1946104600F0BEFFCB
:10838C000390039B002B13D0039B9DF807201A70BE
:10839C00039B009A5A60094A02AB1946104600F03A
:1083AC00C6FF0346002B01D0FFF7D6FF002300E0E9
:1083BC000423184605B05DF804FB00BFD827002045
:1083CC0000B583B0164B1B6800931648082358223F
:1083DC00154900F060FF0190019B002B01D0019B1F
:1083EC0019E06B46114A1946114800F0A3FC0190A4
:1083FC00019B002B01D0019B0DE001210C4800F0EA
:10840C0069FE01230B4A0121094800F013FD0A4BB8
:10841C0001221A70019B184603B05DF804FB00BFE3
:10842C0088A00200D827002080270020118301009B
:10843C0068200020FFFF7F006C27002086B003908F
:10844C000B4601928DF80B30019B002B01D10723B9
:10845C0017E0039B1B68059305994FF0FF324FF013
:10846C00FF33C1E90223059B019A5A619DF80B3039
:10847C00012B0CBF01230023DBB21A46059B1A61AA
:10848C000023184606B07047F0B589B003900291EE
:10849C000192039B069300238DF817300DF11703FF
:1084AC00184600F00FFB069BD3E90223B3F1FF3F04
:1084BC0008BFB2F1FF3F11D1FFF7B8FC02460B46E3
:1084CC00029900200C460546161943EB0507069B3E
:1084DC00C3E9026701238DF81F3002E000238DF8F9
:1084EC001F309DF81730184600F0F6FA9DF81F3033
:1084FC0083F00103DBB2002B01D000230EE0069BBE
:10850C00019A9A61069B1B69002B02D0069B029A6A
:10851C001A6106990020FFF727FF0346184609B099
:10852C00F0BD00B587B00190019B049300238DF83A
:10853C000F300DF10F03184600F0C4FA049BD3E979
:10854C000223B3F1FF3F08BFB2F1FF3F03D1002379
:10855C008DF8173009E004994FF0FF324FF0FF33DC
:10856C00C1E9022301238DF817309DF80F3018460E
:10857C0000F0B2FA9DF8173083F00103DBB2002B48
:10858C0001D0002304E004990120FFF7EDFE03461F
:10859C00184607B05DF804FB08B5034800F0DEFD93
:1085AC000346184608BD00BF6820002000B587B000
:1085BC000390029113468DF8073000230593039B1B
:1085CC001B781A46114B9B5C002B09D0039B043380
:1085DC009DF807200299184604F076FE05900FE0EE
:1085EC00039B1B781A46094B9B5C002B08D1039B01
:1085FC000C339DF807200299184604F09FF805905B
:10860C00059B184607B05DF804FB00BF84280020CA
:10861C0000B585B0019000238DF80F30019B1B78BD
:10862C001A46114B9B5C002B08D0019B0433184657
:10863C0004F0E0FE03468DF80F300EE0019B1B7832
:10864C001A46094B9B5C002B07D1019B0C33184637
:10865C0004F0E0F803468DF80F309DF80F30184603
:10866C0005B05DF804FB00BF8428002000B587B07E
:10867C000390029113468DF8073000230593039B5A
:10868C001B781A46114B9B5C002B09D0039B0433BF
:10869C009DF807200299184604F0C4FE05900FE0DF
:1086AC00039B1B781A46094B9B5C002B08D1039B40
:1086BC000C339DF807200299184604F003F9059035
:1086CC00059B184607B05DF804FB00BF842800200A
:1086DC0084B00190019B9B680393019BDA68039B18
:1086EC00D31A184604B0704700B587B001900091BA
:1086FC00019B1B78022B45D0022B6ADC002B52D03D
:10870C00012B66D1019B1B7A002B05D10122334929
:10871C003348FFF7ABFF5DE0019B5B681B781946A4
:10872C003048FFF752FB0590059B002B0AD0012324
:10873C008DF80C30059B04932B4B1B6803AA104639
:10874C0098470DE02748FFF7C3FF0346002B07D0DF
:10875C0000238DF80C30244B1B6803AA1046984755
:10876C002048FFF7B5FF03461E4A9288934205D86E
:10877C0001221A491A48FFF779FF2BE01B4B012203
:10878C001A7027E002238DF80C30019BDB680493F0
:10879C00012212491248FFF769FF134B1B6803AA09
:1087AC001046984716E012491248FFF729FB03467A
:1087BC00002B05D101220E490948FFF7F7FE09E00D
:1087CC0003238DF80C30084B1B6803AA10469847FE
:1087DC0000E000BF00BF07B05DF804FBF4270020E9
:1087EC0070200020F8270020EC270020F52700201F
:1087FC00F02700200828002030B591B0039002919A
:10880C0001928DF803303C4A019B1360029B002BB4
:10881C0001D107236DE0029B1968029B5B689BB238
:10882C001A463648FFF7A5FA0F900F9B0E930E9B36
:10883C00002B01D00E9B5CE0029B9968029BDB68CD
:10884C009BB21A462E48FFF794FA0F900F9B0D938C
:10885C000D9B002B01D00D9B4BE02A4B04AC1D460D
:10886C000FCD0FC495E80F0084E80F00039B5B69E4
:10887C000A93039B1B7C002B14BF01230023DBB248
:10888C008DF824309DF803308DF82C30039B5B7CE5
:10889C00002B01D00E2300E000238DF82530039B24
:1088AC00DB680693039B9B680793039B1B680593EC
:1088BC00039B5B68049304AB134A1946134802F0FC
:1088CC0009FC0F900F9B0C930C9B002B01D00C9B65
:1088DC000FE00F4B00221A70039B1B68B3F1FF3F94
:1088EC0006D001220B490948FFF7C0FE034600E001
:1088FC000023184611B030BDEC270020F8270020CB
:10890C000828002098A00200F586010070200020A5
:10891C00F5270020F427002000B587B00190124BFA
:10892C001B788DF8173001991048FFF769FA0490FD
:10893C009DF81730002B12D00B4B00221A7001221D
:10894C000B490C48FFF792FE0390039B0293029B8A
:10895C00002B04D0084AD6210298FFF7FDF8049B9F
:10896C00184607B05DF804FBF5270020F827002017
:10897C00F427002070200020B8A0020000B585B0BC
:10898C0003468DF807309DF8073019461048FFF75D
:10899C001CFA0390039B002B15D10E48FFF738FEF1
:1089AC00034683F00103DBB2002B0CD00A490848C4
:1089BC00FFF726FA0346002B05D10122064905488C
:1089CC00FFF7F4FD0390039B184605B05DF804FB1C
:1089DC000828002070200020F027002082B0EFF340
:1089EC0010830093009B019372B600BF019B184645
:1089FC0002B0704762B600BF00BF704700B585B0CB
:108A0C000190FFF7EBFF0390164B9B68002B1BD1DB
:108A1C00144B01229A60144BD3F88020134B134053
:108A2C00104A1360104B114AC3F880200E4BD3F838
:108A3C0084300C4A53600C4B4FF0FF32C3F8842047
:108A4C00019B00221A7002E0019B01221A70039B09
:108A5C00002B01D1FFF7CEFF0023184605B05DF8BF
:108A6C0004FB00BF1828002000E100E0FC06FFBD5D
:108A7C0000B585B003468DF80730104B9B68002B72
:108A8C0016D09DF80730002B12D1FFF7A7FF0390EB
:108A9C000B4A0A4B1B681360094A084B5B6853600E
:108AAC00064B00229A60039B002B01D1FFF7A2FF1B
:108ABC000023184605B05DF804FB00BF1828002001
:108ACC0000E100E000B583B001900198FFF796FF3C
:108ADC0000BF03B05DF804FB00B583B003468DF80E
:108AEC0007309DF807301846FFF7C2FF00BF03B0F0
:108AFC005DF804FB82B003468DF807309DF9073012
:108B0C00002B0CDB9DF8073003F01F0205499DF983
:108B1C0007305B09012000FA02F241F8232000BF64
:108B2C0002B0704700E100E082B003468DF80730D8
:108B3C009DF90730002B0DDB9DF8073003F01F0269
:108B4C0006499DF907305B09012000FA02F2403317
:108B5C0041F8232000BF02B0704700BF00E100E0E5
:108B6C0082B0034600918DF807309DF90730002B39
:108B7C000ADB009BDAB20C499DF907305201D2B2E4
:108B8C000B4483F800230BE0009BDAB207499DF8F5
:108B9C00073003F00F03043B5201D2B20B441A7698
:108BAC0000BF02B0704700BF00E100E000ED00E044
:108BBC0000B583B003460A468DF8073013468DF88E
:108BCC0006309DF806209DF9073011461846FFF730
:108BDC00C7FF00BF03B05DF804FB00B583B00346CC
:108BEC008DF807309DF907301846FFF783FF00BF5B
:108BFC0003B05DF804FB000000B585B00190019B4B
:108C0C00002B0AD0074B43F001030393019B9B01FC
:108C1C000293039B0298984700E000BF05B05DF8F3
:108C2C0004FB00BF60A1020084B00390029101928A
:108C3C00039B029A02F5A872019943F8221000BF17
:108C4C0004B0704782B001900091019B009A02F52C
:108C5C00A87253F82230184602B0704782B00190C7
:108C6C000091019B009AC3F8042300BF02B0704727
:108C7C0082B001900091019B009AC3F8082300BFB9
:108C8C0002B0704782B001900B46ADF80230BDF8CF
:108C9C000230019A13441B68184602B0704784B026
:108CAC0001900B46ADF80230BDF80230019A134426
:108CBC0000221A60BDF80230019A13441B6803931A
:108CCC00039B00BF04B0704782B00190019BD3F8A6
:108CDC000435184602B0704782B001900091019B98
:108CEC00009AC3F8082500BF02B0704782B001900B
:108CFC000B468DF803309DF80320019B13441A4654
:108D0C000123136000BF02B0704782B00190009144
:108D1C00019B009AC3F8442300BF02B0704782B095
:108D2C0001900091019B009AC3F8482300BF02B048
:108D3C007047000000B587B0039002910192039B2D
:108D4C005B791946284A019B42F82130039B5B79D9
:108D5C00264ADB0013441B79002B0ED00823059305
:108D6C00234A244BD31ADB081B0443F00203224989
:108D7C001846FDF771FF059B32E0039B1A68029BB6
:108D8C001B8819461046FFF7A7FF039B93F9042095
:108D9C00029B9B7819461046FFF70AFF039B93F939
:108DAC0004301846FFF719FF039B5B790F4ADB0071
:108DBC00134401221A71039B5B7919460B4A039BDE
:108DCC0042F8313000230593094A0A4BD31ADB08C9
:108DDC001B0443F0030309491846FDF73DFF059BAF
:108DEC00184607B05DF804FB242800202828002032
:108DFC00589E0200209E020010A1020034A1020025
:108E0C0000B583B00190019B1B6800211846FFF749
:108E1C006DFF00BF03B05DF804FB00B583B001909B
:108E2C00019B1B6804211846FFF760FF00BF03B0CD
:108E3C005DF804FB00B587B00390029101928DF8A8
:108E4C0003304FF48032029B02FA03F30593029B2A
:108E5C0050339BB29B00ADF81230019B23F07F4343
:108E6C000193039B1B6805991846FFF701FF039BB1
:108E7C001B6805991846FFF752FF039B1B68BDF84A
:108E8C00122011461846FFF70AFF039B1B68019A34
:108E9C0002991846FFF7C8FE039B1B6805991846F4
:108EAC00FFF733FF9DF80330002B05D0039B1B68A5
:108EBC0005991846FFF7D2FE00BF07B05DF804FB1A
:108ECC0000B585B00390029113468DF80730039BD3
:108EDC001B6802991846FFF718FF9DF80730002B06
:108EEC0005D0039B1B6802991846FFF7B7FE00BF1D
:108EFC0005B05DF804FB00B583B001900091019BB7
:108F0C001B6800991846FFF70AFF019B1B68009924
:108F1C001846FFF7ADFE00BF03B05DF804FB00B5CB
:108F2C0083B001900B46ADF80230019B1B68BDF875
:108F3C00022011461846FFF7A5FE0346002B09D068
:108F4C00019B1B68BDF8022011461846FFF7A7FECF
:108F5C00012300E00023184603B05DF804FB82B047
:108F6C0001900091019A009BD31A23F07F4318467D
:108F7C0002B0704700B58BB0039002910192009340
:108F8C004FF48032029B02FA03F30993029B503395
:108F9C009BB29B00ADF82230019B23F07F430193E1
:108FAC0009990398FFF7A7FF039B1B681846FFF767
:108FBC008BFE0790039B1B6802991846FFF742FE35
:108FCC000690039B1B68079A02991846FFF72CFE24
:108FDC00039B1B68BDF8222011461846FFF75FFE65
:108FEC0007990698FFF7BBFF0346012B0AD1102007
:108FFC00FFF702FE039B1B68BDF8222011461846A2
:10900C00FFF74DFE039B1B681846FFF75DFE0790AC
:10901C0007990198FFF7A3FF0590039B1B6809991B
:10902C001846FFF772FE059B012B15D1039B1868A0
:10903C00019B01331A460299FFF7F6FD1020FFF74A
:10904C00DBFD039B1B681846FFF73EFE0246079BA1
:10905C00934235D00D2339E0039B1B68019A02998A
:10906C001846FFF7E1FD039B1B681846FFF72CFE23
:10907C000790019B013B07991846FFF770FF05907D
:10908C00009BC3F1FF1303F57F43059A9A4201D964
:10909C000D231BE0059B002B12D1039B1868019B31
:1090AC0001331A460299FFF7BFFD039B1B68184654
:1090BC00FFF70AFE0246079B934201D00D2305E001
:1090CC00012209990398FFF7FBFE002318460BB009
:1090DC005DF804FB00B583B001900B468DF80330AE
:1090EC009DF803301A4602210198FFF7E9FE00BFF4
:1090FC0003B05DF804FB00B583B001904FF48271AE
:10910C000198FFF70CFF0346184603B05DF804FB0B
:10911C0000B583B0019000914FF48032009B02FAAD
:10912C0003F319460198FFF7E6FE00BF03B05DF8A4
:10913C0004FB00B585B001900091009B50339BB2AD
:10914C009B00ADF80E30BDF80E3019460198FFF7B4
:10915C00E6FE0346184605B05DF804FB00B583B087
:10916C000190019B1B681846FFF7AEFD034618469D
:10917C0003B05DF804FB00B583B00190019B93F93B
:10918C0004301846FFF7D0FC00BF03B05DF804FBB9
:10919C0008B5044B1B68044A12681046984700BF78
:1091AC0008BD00BF242800202828002086B001908C
:1091BC000091019B53E8011F8AB2D8890244988917
:1091CC00824228BF121A1889824202BFBFF32F8F26
:1091DC00002307E0C2EA010243E801200028E9D19C
:1091EC004FF001038DF80F30059002910492029A12
:1091FC00009B1A609DF80F30DBB2184606B0704722
:10920C0084B00190019951E8013FC3EA034341E85E
:10921C000132002AF7D10392029300BF04B07047C9
:10922C0086B001900091019B53E8021F1FFAA1F236
:10923C00D888824202BFBFF32F8F00230DE0D8895C
:10924C0002449889824228BF121AC1EA024243E8BA
:10925C0002200028E8D14FF001038DF80F30059063
:10926C0002910492029A009B1A609DF80F30DBB2B7
:10927C00184606B0704784B00190019951E8023F3E
:10928C00C3EA234341E80232002AF7D10392029346
:10929C0000BF04B0704784B00390029111461A4687
:1092AC000B46ADF806301346ADF80430029B002B8C
:1092BC0001D10E231FE0BDF80630BDF80420B3FB2E
:1092CC00F2F101FB02F29B1A9BB2002B01D0092395
:1092DC0011E0039B029A1A60039B00225A60039BC5
:1092EC0000229A60039BBDF806209A81039BBDF86F
:1092FC000420DA810023184604B0704700B585B00D
:10930C0001900091009B19460198FFF74FFF03460F
:10931C00002B07D0019B1B68009A128813440393FF
:10932C00039B00E00023184605B05DF804FB00B574
:10933C0083B001900091009B1A88009B5B889A4235
:10934C0004D10198FFF75CFF012300E000231846CD
:10935C0003B05DF804FB00B585B001900091009B53
:10936C0019460198FFF75CFF0346002B07D0019BC1
:10937C001B68009A528813440393039B00E000235C
:10938C00184605B05DF804FB00B583B00190009160
:10939C00009B1A88009B5B889A4204D10198FFF7C6
:1093AC006AFF012300E00023184603B05DF804FBBC
:1093BC0000B585B001900091009B5B099B00019A60
:1093CC001A44009B03F01F03012101FA03F3194611
:1093DC00104600F04CF8039000BF05B05DF804FB9C
:1093EC0000B585B001900091009B5B099B00019A30
:1093FC001A44009B03F01F03012101FA03F3DB4322
:10940C001946104600F061F8039000BF05B05DF8F6
:10941C0004FB82B001900091009B5B099B00019AB8
:10942C0013441A68009B03F01F0322FA03F303F0A2
:10943C000103002B14BF01230023DBB2184602B03A
:10944C00704710B487B001900091019B009A53E8CB
:10945C00004F104643E8000191F0000FF7D105943E
:10946C0004900391059B184607B010BC704710B4CC
:10947C0087B001900091019B009A53E8004F44EA99
:10948C00020043E8000191F0000FF6D1059404901E
:10949C000391049B184607B010BC704710B487B0FA
:1094AC0001900091019B009A53E8004F04EA0200DE
:1094BC0043E8000191F0000FF6D10594049003915C
:1094CC00059B184607B010BC704710B487B00190CC
:1094DC000091019B009A53E8004F04EA020043E814
:1094EC00000191F0000FF6D1059404900391049BB8
:1094FC00184607B010BC704710B487B001900091AB
:10950C00019B009A53E8004F04EB020043E8000172
:10951C0091F0000FF6D1059404900391049B18462A
:10952C0007B010BC704710B487B001900091019B3C
:10953C00009A53E8004FA4EB020043E8000191F0BD
:10954C00000FF6D1059404900391049B184607B0C4
:10955C0010BC704700B583B0019001210198FFF752
:10956C0086FF0346184603B05DF804FB00B583B0D4
:10957C00019000210198FFF791FF0346184603B0B4
:10958C005DF804FB82B001900B468DF80330019B13
:10959C00DA689DF803300199098A01FB03F313443F
:1095AC00184602B0704782B001900091009B019A5E
:1095BC00D2689B1A019A128AB3FBF2F3DBB21846FB
:1095CC0002B0704784B00190019B002B01D10E2397
:1095DC0020E0019B9A68019B5B68D31A8DF80F30D1
:1095EC00019B1B68019A52681A6007E0019B1A687C
:1095FC001368591C11609DF80F201A709DF80F30DC
:10960C005A1E8DF80F20002BF0D1019B1B680022F5
:10961C001A710023184604B0704700B585B001904C
:10962C000023039300238DF80A300DF10A0318462A
:10963C00FFF748FA019B1B681A68019B5B689A420A
:10964C001FD9019B1B681A68013A1A601B681B78AA
:10965C0019460198FFF796FF0390019B9A68019BAE
:10966C001B681B68D31A8DF80B30019B1B681B7988
:10967C009DF80B209A4204D9019B1B689DF80B2086
:10968C001A719DF80A301846FFF726FA039B184604
:10969C0005B05DF804FB10B584B001900091009BFF
:1096AC00039300238DF80B300DF10B031846FFF7D5
:1096BC0009FA019B1B681C68621C1A6003990198CB
:1096CC00FFF771FF034623709DF80B301846FFF728
:1096DC0003FA00BF04B010BD00B583B00190019B2C
:1096EC009B68002B0CD0019B5B69019A1069019A55
:1096FC001168019A92689847019B00229A6000E0D9
:10970C0000BF03B05DF804FB0EB400B584B001904B
:10971C00059B002B0AD00023039306AB039303ABEA
:10972C001A460599019800F0B5F900E000BF04B0A5
:10973C005DF804EB03B0704700B583B001900B46A5
:10974C008DF803309DF803300A2B03D10D210198BD
:10975C00FFF7F2FF019B1A68019B9B68581C01994B
:10976C00886013449DF803201A70019B9A68019B32
:10977C005B689A4202D30198FFF7AEFF00BF03B0BB
:10978C005DF804FB00B587B0039002910192009341
:10979C0000230593009B03F00103002B24D00BE066
:1097AC00029B01330293059B013305939DF8133003
:1097BC0019460398FFF7C0FF029B1B788DF81330F6
:1097CC009DF81330002BEBD106E0019B013B01937C
:1097DC0020210398FFF7B0FF019A059B9A422ED9DE
:1097EC00019B002BF1D12AE0029B002B0BD002989D
:1097FC000FF081FF059006E0019B013B01932021B6
:10980C000398FFF799FF019A059B9A420FD9019B88
:10981C00002BF1D10BE0029B01330293059B01332A
:10982C0005939DF8133019460398FFF785FF029BAB
:10983C001B788DF813309DF81330002BEBD100BF43
:10984C0007B05DF804FB000000B589B003900291ED
:10985C0001920093029B07930123069307E0079A5A
:10986C00019BB2FBF3F30793069B01330693079A14
:10987C00019B9A42F3D2009A069B9A4201D9009B13
:10988C0006930B9B03F00103002B22D10A9B002BA8
:10989C001FD00B9B03F00203002B06D0009B002B68
:1098AC0003D130238DF8173002E020238DF81730C8
:1098BC0008E00A9B013B0A939DF817301946039860
:1098CC00FFF73AFF0A9B002B03D0069A0A9B9A4299
:1098DC00EFD301230793009B012B03D9009B013B82
:1098EC00009309E0029A079BB2FBF3F30493049AEA
:1098FC00019B9A4200D205E0079B019A02FB03F3FD
:10990C000793E8E7029A079BB2FBF3F30493049BDB
:10991C00079A02FB03F3029AD31A0293154A049B8B
:10992C0013441B7819460398FFF706FF079A019B0F
:10993C00B2FBF3F30793079B002BE3D10B9B03F0D4
:10994C000103002B11D00A9B002B0ED006E00A9BC2
:10995C00013B0A9320210398FFF7EEFE0A9B002B94
:10996C0003D0069A0A9B9A42F1D300BF09B05DF866
:10997C0004FB00BF68A1020000B589B005900491FA
:10998C0003920293049B002BB8BF5B420693012306
:10999C00079307E0039B069A92FBF3F30693079B4E
:1099AC0001330793039B069A9A42F3DA029A079BB8
:1099BC009A4201D9029B07930A9B002B0AD0049B65
:1099CC00002B04DB0B9B03F00403002B02D00A9B3F
:1099DC00013B0A930B9B03F00203002B02D0029B6A
:1099EC00002B16D00B9B03F00103002B11D10A9B0B
:1099FC00002B0ED006E00A9B013B0A932021059810
:109A0C00FFF79AFE0A9B002B03D0079A0A9B9A42F7
:109A1C00F1D3049B002B07DA049B5B4204932D21AA
:109A2C000598FFF789FE08E00B9B03F00403002B5D
:109A3C0003D02B210598FFF77FFE0B9B03F002034D
:109A4C00002B19D00B9B03F00103002B14D1029BAC
:109A5C00002B11D10A9B002B0ED006E00A9B013B78
:109A6C000A9330210598FFF767FE0A9B002B03D061
:109A7C00079A0A9B9A42F1D304990B9B01930A9B78
:109A8C000093029B039A0598FFF7DEFE00BF09B016
:109A9C005DF804FB00B58FB0059004910392049B14
:109AAC00002B00F09181049B1B788DF83730049BC0
:109ABC00013304939DF83730002B00F07C819DF826
:109ACC003730252B40F06B8100230A9301230C9334
:109ADC00049B1B788DF837309DF83730302B0DD028
:109AEC00302B1BDC2B2B11D02D2B17D10A9B43F0C9
:109AFC0001030A93049B0133049312E00A9B43F085
:109B0C0002030A93049B013304930AE00A9B43F07B
:109B1C0004030A93049B0133049302E000230C9387
:109B2C0000BF0C9B002BD3D1002309939DF8373039
:109B3C002A2B0CD1039B1B68191D039A11601B68FF
:109B4C00099A13440993049B013304931AE0049B70
:109B5C001B788DF837309DF837302F2B12D99DF8A4
:109B6C003730392B0ED8049B01330493099A1346D2
:109B7C009B0013445B001A469DF837301344303B6E
:109B8C000993D3E700230B93049B1B788DF8373094
:109B9C009DF837302E2B1DD1049B01330493049B6D
:109BAC001B788DF837309DF837302F2B12D99DF854
:109BBC003730392B0ED8049B013304930B9A134680
:109BCC009B0013445B001A469DF837301344303B1E
:109BDC000B93E4E7049B1B788DF837309DF83730F6
:109BEC006C2B03D09DF83730682B07D1049B0133C5
:109BFC000493049B1B788DF83730EFE79DF83730D2
:109C0C00252B00F0C280252BC0F2C480782B00F3EA
:109C1C00C180582BC0F2BE80583B202B00F2BA807A
:109C2C0001A252F823F000BF239D0100A19D010069
:109C3C00A19D0100A19D0100A19D0100A19D01001C
:109C4C00A19D0100A19D0100A19D0100A19D01000C
:109C5C00A19D0100B99C0100DB9C0100A19D0100AC
:109C6C00A19D0100A19D0100A19D0100DB9C0100B3
:109C7C00A19D0100A19D0100A19D0100A19D0100DC
:109C8C00A19D0100A19D0100639D0100A19D01000A
:109C9C00A19D0100479D0100A19D0100FF9C0100B9
:109CAC00A19D0100A19D0100239D0100039B1B6848
:109CBC00191D039A11601B680C930C9B8DF81F30B7
:109CCC009DF81F3019460598FFF736FD63E0039B9E
:109CDC001B68191D039A11601B680C930A9B019356
:109CEC00099B00930B9B0A220C990598FFF744FEE5
:109CFC0051E0039B1B68191D039A11601B680C93A0
:109D0C000C990A9B0193099B00930B9B0A220598C3
:109D1C00FFF79AFD3FE0039B1B68191D039A116026
:109D2C001B680C930C990A9B0193099B00930B9B4A
:109D3C0010220598FFF788FD2DE0039B1B68191D69
:109D4C00039A11601B6808930A9B099A0899059855
:109D5C00FFF718FD1FE0039B1B68191D039A116088
:109D6C001B680C9330210598FFF7E6FC78210598C9
:109D7C00FFF7E2FC0C9900230193082300930823BE
:109D8C0010220598FFF760FD05E025210598FFF7E7
:109D9C00D3FC00E000BF049B0133049305E09DF865
:109DAC00373019460598FFF7C7FC049B1B78002B2E
:109DBC007FF479AE00E000BF059B1B7B002B04D029
:109DCC000598FFF789FC00E000BF0FB05DF804FBBD
:109DDC0000B583B001900198FFF7F4FB03461846D9
:109DEC0003B05DF804FB00B58BB001900091019BB2
:109DFC001B8A043B0793009A079B1344DA1C079BAE
:109E0C00B2FBF3F38DF81B300198FFF706FC0590BD
:109E1C00059B002B01D1002338E0059B00221A7111
:109E2C00059B01225A71079B9AB2059BDA80059B10
:109E3C0009939DF81B30013B0493099B019A1A600E
:109E4C00002308931DE00198FFF7E7FB0390039BA9
:109E5C00002B0ED0059B5B790133DAB2059B5A714E
:109E6C00099B039A1A60039B019A1A60039B09933E
:109E7C0004E0059800F00EF8002307E0089B01337E
:109E8C000893089A049B9A42DDD3059B18460BB0A5
:109E9C005DF804FB00B58BB00190019B0793079B09
:109EAC005B798DF81B30019B08939DF81B30013BAF
:109EBC0005930023099305E0089B1B680893099BF5
:109ECC0001330993099A059B9A42F5D3089B1B68A9
:109EDC000493019B0893002309930BE0089B1B68D8
:109EEC00039308990498FFF7D6FB039B0893099BEF
:109EFC00013309939DF81B30099A9A42EED300BFA7
:109F0C0000BF0BB05DF804FB00B585B00190019B60
:109F1C000393039B043301211846FFF7EDFA00BFAE
:109F2C0005B05DF804FB00B587B00190019B05936B
:109F3C00059B043301211846FFF7F5FA03460393FA
:109F4C0003AB0493049B1B78002B02D10198FFF701
:109F5C00A1FF00BF07B05DF804FB00B591B0039002
:109F6C00029101920093039B0993039B0F93099B0E
:109F7C00DB881A46099B5B7902FB03F3043B0893CD
:109F8C00099BDB880793009B1A1D079BB2FBF3F31D
:109F9C000E93009B0433079AB3FBF2F2079901FB73
:109FAC0002F29B1A0D93019B1A68009B1344089AAA
:109FBC009A4203D2089A009BD31A01E0019B1B68BA
:109FCC000C93019B0C9A1A6005E00F9B1B680F9376
:109FDC000E9B013B0E930E9B002BF6D100230B9393
:109FEC00079A0D9BD31A0A930A9A0C9B934228BF8B
:109FFC0013460A932AE0029A0B9B134406930F9A7A
:10A00C000D9B1344043305939DF84830002B05D069
:10A01C000A9A059906980FF0F0FA04E00A9A069944
:10A02C0005980FF0EAFA00230D930F9B1B680F9312
:10A03C000C9A0A9BD31A0C930B9A0A9B13440B93FE
:10A04C00079A0C9B934228BF13460A930C9B002B38
:10A05C00D1D100BF00BF11B05DF804FB00B589B0D1
:10A06C000590049103920293039B079307AA002384
:10A07C000093029B04990598FFF76FFF00BF09B08E
:10A08C005DF804FB00B589B005900491039202932E
:10A09C00039B079307AA01230093029B049905983D
:10A0AC00FFF75BFF00BF09B05DF804FB82B00190C5
:10A0BC00019B00221A60BFF35F8F00BF00BF02B08C
:10A0CC00704741DF704700BF1846000008B5064BCB
:10A0DC0000221A700548FFF7E9FF0549054800F012
:10A0EC003AF80023184608BD3428002030280020F8
:10A0FC0084A102003828002000B583B008F09AF93A
:10A10C000346002B03D0FFF7DCFF019002E020BFD9
:10A11C0040BF20BF00BF03B05DF804FB82B00190CC
:10A12C00019B9B6800229A60019B9B6800221A612C
:10A13C00019B9B6800225A61019B9B680022DA609C
:10A14C00019B9B6800225A60019B9B6800221A604D
:10A15C0000BF02B0704782B001900091019B009A41
:10A16C001A60019B1B681A68019B5A60019B5A6814
:10A17C00019B1B685B689A4202D1019B00225A60CA
:10A18C0000BF02B0704782B00190019B5B68002B4E
:10A19C0014D0019B5B681A46019B1B689B68134497
:10A1AC001A46019B5A60019B5A68019B1B685B68AD
:10A1BC009A4204D1019B00225A6000E000BF02B019
:10A1CC00704700B585B001900091019B5B680393CB
:10A1DC000FE0019B9B68039A126800991046984700
:10A1EC00034683F00103DBB2002B07D1039B1B68F2
:10A1FC000393039B1B68002BEBD100E000BF039B78
:10A20C001A68009B1A60039B009A1A6000BF05B085
:10A21C005DF804FB84B00190019B5B681B680393A1
:10A22C00019B5B681B68002B06D0019B5B681A685E
:10A23C00019B5B6812681A60039B184604B0704758
:10A24C0082B00190019B5B681B68184602B0704796
:10A25C0084B00190009100238DF80B30019B5B685A
:10A26C0003930FE0039B1B68009A9A4207D1009B53
:10A27C001A68039B1A6001238DF80B3006E0039BD0
:10A28C001B680393039B1B68002BEBD19DF80B30D1
:10A29C00184604B07047000000B585B001900198D5
:10A2AC0000F00EF80390039B002B01D0039B00E001
:10A2BC00024B184605B05DF804FB00BF9CA10200E0
:10A2CC0086B00190164B0593164B04931FE0049A2D
:10A2DC00059BD31ADB10DA0F13445B10DB00059AD5
:10A2EC0013440393039B1B680293029A019B9A42AB
:10A2FC0002D9039B04930AE0029A019B9A4203D26F
:10A30C00039B0833059302E0039B5B6804E0059A0A
:10A31C00049B9A42DBD30023184606B0704700BF5B
:10A32C009CA50200C4A6020000B583B00190009168
:10A33C00019BDBB21846FEF721FB019B184603B0CC
:10A34C005DF804FB86B0039002910192039B5B09BC
:10A35C000593059B5B01039AD31A0493029B059A00
:10A36C001A60019B049A1A6000BF06B07047000087
:10A37C0084B001900091002303931FE0019B002BFC
:10A38C0010D0124A039B52F82330019A9A4209D8F2
:10A39C000F4A039B52F823200E49039B51F823309C
:10A3AC009A4206D10A4A039B52F82330009A9A42E9
:10A3BC0001D2039B06E0039B01330393039B062B03
:10A3CC00DCD90023184604B0704700BFD0A60200A9
:10A3DC0008A70200ECA6020000B585B0019002AA05
:10A3EC0003AB19460198FFF7ADFF039B074A52F8E0
:10A3FC002310029B01229A40039B0A43034941F814
:10A40C00232000BF05B05DF804FB00BF60280020CE
:10A41C0000B585B0019001990020FFF7A9FF0390CA
:10A42C00034A039B52F82330184605B05DF804FB31
:10A43C00D0A6020000B585B0019002AA03AB194664
:10A44C000198FFF77FFF039B084A52F82320029BD9
:10A45C0022FA03F303F00103002B14BF01230023A2
:10A46C00DBB2184605B05DF804FB00BF6028002085
:10A47C0000B585B0019002AA03AB19460198FFF70D
:10A48C0061FF039B084A52F82310029B012202FA37
:10A49C0003F3DA43039B0A40034941F8232000BF2E
:10A4AC0005B05DF804FB00BF6028002000B589B042
:10A4BC00019000912D4B1B7883F00103DBB2002B34
:10A4CC0002D048F208134DE0019B002B02D148F258
:10A4DC000E1347E0009B002B02D148F20E1341E013
:10A4EC00009B1B680493049B002B02D0049B202B25
:10A4FC0002D948F2071335E001210498FFF738FF21
:10A50C0003901B4A039B52F823300693194A039B72
:10A51C0052F82330079348F2041305931EE0069873
:10A52C00FFF776FF02900698FFF784FF0346002B97
:10A53C000DD0002305930698FFF79AFF079B0E4A50
:10A54C001A44019B1A60009B029A1A6009E0079A50
:10A55C00029B13440793069B01330693069B002B27
:10A56C00DDD0059B184609B05DF804FB642800207B
:10A57C00ECA6020024A702004028002000B587B0FA
:10A58C00019000230493019B039303AA04AB11468F
:10A59C001846FFF78BFF0590059B002B01D000237D
:10A5AC000493049B184607B05DF804FB00B585B016
:10A5BC000190174B1B7883F00103DBB2002B20D1E9
:10A5CC00019B002B1FD0002303930023029314E064
:10A5DC00039B104A1344019A9A4204D10298FFF744
:10A5EC00FBFE00BF10E00298FFF712FF0246039B30
:10A5FC0013440393029B01330293029B002BE7D07D
:10A60C0002E000BF00E000BF05B05DF804FB00BF36
:10A61C006428002040280020BFF34F8F00BF064B5A
:10A62C00DB6803F4E0620449044B1343CB60BFF3D3
:10A63C004F8F00BF00BFFDE700ED00E00400FA05FE
:10A64C0082B00A4B1B680193094B1B680093019B5A
:10A65C000F2B06D1009B002B01D1012302E001231B
:10A66C0000E00023184602B0704700BF3001001014
:10A67C003401001082B00A4B1B680193094B1B6814
:10A68C000093019B0F2B06D1009B002B01D10123C2
:10A69C0002E0012300E00023184602B0704700BF1F
:10A6AC00300100103401001082B00A4B1B6801937A
:10A6BC00094B1B680093019B0F2B06D1009B002BB1
:10A6CC0001D1012302E0012300E00023184602B06F
:10A6DC00704700BF300100103401001082B00A4BEB
:10A6EC001B680193094B1B680093019B0F2B06D130
:10A6FC00009B002B01D1012302E0012300E0002389
:10A70C00184602B0704700BF300100103401001031
:10A71C0082B00A4B1B680193094B1B680093019B89
:10A72C000F2B06D1009B002B01D1012302E001234A
:10A73C0000E00023184602B0704700BF3001001043
:10A74C003401001000BF704700BF044BD3F8003435
:10A75C00002BFAD000BF00BF704700BF00E00140E3
:10A76C0000B583B00190054A019BC2F80435FFF790
:10A77C00EBFF00BF03B05DF804FB00BF00E001403D
:10A78C00024B034A1A6000BF704700BF84200020B0
:10A79C000090D00308B5FFF753FF0346002B06D0FB
:10A7AC006E4B1B685B0B6E4A03F007031360FFF7DD
:10A7BC0061FF0346002B0ED04FF080430022C3F8FC
:10A7CC000C214FF080430022C3F810214FF080433E
:10A7DC000022C3F83825FFF767FF0346002B76D01D
:10A7EC004FF080535F4AD3F80434C2F820354FF051
:10A7FC0080535C4AD3F80834C2F824354FF08053A8
:10A80C00584AD3F80C34C2F828354FF08053554AC7
:10A81C00D3F81034C2F82C354FF08053514AD3F88A
:10A82C001434C2F830354FF080534E4AD3F81834F4
:10A83C00C2F834354FF080534A4AD3F81C34C2F86E
:10A84C0040354FF08053474AD3F82034C2F8443592
:10A85C004FF08053434AD3F82434C2F848354FF0B4
:10A86C008053404AD3F82834C2F84C354FF080530B
:10A87C003C4AD3F82C34C2F850354FF08053394A47
:10A88C00D3F83034C2F854354FF08053354AD3F8EE
:10A89C003434C2F860354FF08053324AD3F8383430
:10A8AC00C2F864354FF080532E4AD3F83C34C2F8CA
:10A8BC0068354FF080532B4AD3F84034C2F86C35CE
:10A8CC004FF08053274AD3F84434C2F87035FFF761
:10A8DC0005FF0346002B0DD04FF08043D3F8003416
:10A8EC0003F00103002B05D04FF080436FF0010201
:10A8FC00C3F80024FFF70CFF0346002B05D01A4BBE
:10A90C001B68194A43F00F031360FFF71BFF4FF04E
:10A91C001023D3F80032002B05DB4FF01023D3F8B3
:10A92C000432002B15DA0120FFF71AFF4FF0102329
:10A93C001522C3F80022FFF707FF4FF01023152252
:10A94C00C3F80422FFF700FF0020FFF709FFFFF711
:10A95C0063FEFFF715FF00BF08BD00BF44020010E7
:10A96C003C05004000C00040E40E004082B0019065
:10A97C004FF0A043184602B0704700B585B0019067
:10A98C00084611461A4603468DF803300B468DF8DF
:10A99C00023013468DF8013001AB1846FFF7E6FF85
:10A9AC0003909DF803209DF802305B001A439DF83C
:10A9BC0001309B001A439DF818301B0242EA030138
:10A9CC009DF81C301B04019A1943039B02F5E0729D
:10A9DC0043F8221000BF05B05DF804FB00B585B04C
:10A9EC0003900023019300230093002301220121F3
:10A9FC000398FFF7C2FF00BF05B05DF804FB00B57C
:10AA0C0085B003900B468DF80B309DF80B3000226F
:10AA1C00019200220092002200210398FFF7ADFF63
:10AA2C0000BF05B05DF804FB00B585B0019001AB2B
:10AA3C001846FFF79BFF0390019B012202FA03F3D8
:10AA4C001946039800F086F800BF05B05DF804FBCA
:10AA5C0000B585B0019001AB1846FFF787FF039056
:10AA6C00019B012202FA03F31946039800F07CF8CB
:10AA7C0000BF05B05DF804FB00B585B0019001ABDB
:10AA8C001846FFF773FF0390039BD3F8043502932A
:10AA9C00029BDA43019B012101FA03F31A40039B49
:10AAAC00C3F80825019B01229A40029B1A40039B84
:10AABC00C3F80C2500BF05B05DF804FB00B583B0EE
:10AACC0001900091009B002B03D10198FFF7C0FF70
:10AADC0002E00198FFF7A8FF00BF03B05DF804FB8C
:10AAEC0000B585B0019001AB1846FFF73FFF03900E
:10AAFC00039800F01FF80246019B22FA03F303F0BF
:10AB0C000103184605B05DF804FB00B585B0019053
:10AB1C0001AB1846FFF72AFF0390039800F012F8D8
:10AB2C000246019B22FA03F303F00103184605B019
:10AB3C005DF804FB82B00190019BD3F810351846E8
:10AB4C0002B0704782B00190019BD3F804351846CF
:10AB5C0002B0704782B001900091019B009AC3F83B
:10AB6C00082500BF02B0704782B001900091019B94
:10AB7C00009AC3F80C2500BF02B0704700B585B031
:10AB8C0001900F4A019B13441B781846FFF7BDFF39
:10AB9C000346002B14BF012300238DF80F309DF8C2
:10ABAC000F30002B14BF01230023DBB283F0010311
:10ABBC00DBB203F00103DBB2184605B05DF804FB11
:10ABCC0040A7020000B583B00190064A019B1344D4
:10ABDC001B7800211846FFF771FF00BF03B05DF82A
:10ABEC0004FB00BF40A7020000B583B00190064AE9
:10ABFC00019B13441B7801211846FFF75FFF00BF30
:10AC0C0003B05DF804FB00BF40A7020000B583B0A1
:10AC1C000023019305E00198FFF7E6FF019B013348
:10AC2C000193019B032BF6D900BF00BF03B05DF865
:10AC3C0004FB00B583B00023019305E00198FFF7F6
:10AC4C00C1FF019B01330193019B032BF6D900BF7C
:10AC5C0000BF03B05DF804FB00B583B00190054A5A
:10AC6C00019B13441B781846FFF706FF00BF03B087
:10AC7C005DF804FB40A7020000B583B000230193EC
:10AC8C0009E0094A019B13441B781846FFF7A6FEFE
:10AC9C00019B01330193019B032BF2D9FFF7B6FF04
:10ACAC0000BF03B05DF804FB40A7020000B585B0FF
:10ACBC0001900F4A019B13441B781846FFF710FFB5
:10ACCC000346002B14BF012300238DF80F309DF891
:10ACDC000F30002B14BF01230023DBB283F00103E0
:10ACEC00DBB203F00103DBB2184605B05DF804FBE0
:10ACFC0044A7020000B583B0002301930AE0094A7F
:10AD0C00019B13441B7803211846FFF778FE019B27
:10AD1C0001330193019B032BF1D900BF00BF03B09A
:10AD2C005DF804FB44A7020084B001904FF0FF33A0
:10AD3C000293002303930DE00A4A039B13441B78F0
:10AD4C001A46019B934202D1039B029305E0039B9D
:10AD5C0001330393039B032BEED9029B184604B0DB
:10AD6C00704700BF44A7020082B00190034A019BC8
:10AD7C0013441B78184602B0704700BF44A702006A
:10AD8C0000B583B00190019B03F00103002B01D0AF
:10AD9C00FFF772FF019B03F00203002B01D0FFF7BA
:10ADAC00A9FF00BF03B05DF804FB000082B00346AE
:10ADBC008DF807309DF90730002B13DB9DF8073019
:10ADCC0003F01F0209499DF907305B09012000FAC5
:10ADDC0002F2203341F82320BFF34F8F00BFBFF3A3
:10ADEC006F8F00BF00BF02B0704700BF00E100E0F2
:10ADFC00044BD3F80034002B14BF01230023DBB227
:10AE0C00184670470000014008B5FFF7F1FF0346F4
:10AE1C0083F00103DBB2002B04D000F0EFFA024BFD
:10AE2C0000229A7000BF08BD6828002000B583B0CE
:10AE3C0000230193184B1B78002B02D08523019320
:10AE4C001CE0154B00229A60134B00225A60124BE7
:10AE5C0000221A61104B0022DA60104800F0AEFAA2
:10AE6C00019007F0E7FA034683F00103DBB2002BF5
:10AE7C0001D000F0BBFA084B01221A70FFF7B8FFA3
:10AE8C000346002B02D0044B01229A70019B1846FA
:10AE9C0003B05DF804FB00BF6828002059AF010027
:10AEAC0084B00190019B1B680393039B002B03D080
:10AEBC00039B1A68019B1A60039B184604B07047E9
:10AECC0000B583B000238DF807300DF10703184649
:10AEDC00FDF7F8FD094BDB68013B084AD360074BD3
:10AEEC00DB68002B01D1FFF78FFF9DF80730184668
:10AEFC00FDF7F2FD00BF03B05DF804FB68280020ED
:10AF0C0000B585B003468DF807309DF80730002B4F
:10AF1C0002D10C4B039301E00B4B03930398FFF707
:10AF2C00BFFF0290029B002B06D0029B5B689DF832
:10AF3C00072010469847F1E700BF00BF05B05DF849
:10AF4C0004FB00BF702800207828002000B583B0D7
:10AF5C0003468DF807309DF80730002B05D10A4BBE
:10AF6C0001225A700020FFF7CBFF9DF80730012B10
:10AF7C0005D1054B01229A700120FFF7C1FF00BFDC
:10AF8C0003B05DF804FB00BF6828002000B583B057
:10AF9C0001900091019B002B05D1054B01225A70A9
:10AFAC000020FFF7ADFF00BF03B05DF804FB00BF4E
:10AFBC006828002000B585B0034600918DF8073055
:10AFCC009DF80730032B29D0032B2CDC002B02D04F
:10AFDC00012B04D027E00020FFF7E8FE24E000233B
:10AFEC008DF80F300DF10F031846FDF76BFD104B6C
:10AFFC001B7883F00103DBB2002B01D0FFF716FFA7
:10B00C000B4BDB6801330A4AD360094B01229A705F
:10B01C009DF80F301846FDF75FFD05E000F0E6F9EE
:10B02C00FFF74EFF00E000BF00BF05B05DF804FB6A
:10B03C006828002000B589B001900091009B07930F
:10B04C00019B1B788DF80C30019B5B680493019B72
:10B05C009B68DBB28DF81430019BDB680693074AC2
:10B06C00079B52F823300649079A51F8221003AA7D
:10B07C001046984700BF09B05DF804FB7C280020FF
:10B08C008028002000B589B001900091009B0793A7
:10B09C00019B1B788DF80C30019B5B680493019B22
:10B0AC009B68DBB28DF81430019BDB680693074A72
:10B0BC00079B52F823300649079A51F8221003AA2D
:10B0CC001046984700BF09B05DF804FB7C280020AF
:10B0DC008028002030B58FB0039002910192039B21
:10B0EC001B780C9326490C9B019A41F82320029B58
:10B0FC001A6924490C9B41F82320029B5B7F19465B
:10B10C00214A0C9B13440A461A70029B04AC1D4640
:10B11C000FCD0FC495E80F0084E80F000C9B08932B
:10B12C0000230D93039B1B781A46174B9B5C002B3B
:10B13C000DD0039B181D019B002B01D0134A00E07E
:10B14C00002204AB194602F061F80D9014E0039B49
:10B15C001B781A460C4B9B5C002B0DD1039B03F107
:10B16C000C00019B002B01D0094A00E0002204AB2B
:10B17C00194601F039FA0D900D9B18460FB030BDF1
:10B18C007C280020802800208428002041B0010069
:10B19C0091B0010082B003468DF807309DF907305D
:10B1AC00002B0CDB9DF8073003F01F0205499DF9BD
:10B1BC0007305B09012000FA02F241F8232000BF9E
:10B1CC0002B0704700E100E082B0034600918DF8B8
:10B1DC0007309DF90730002B0ADB009BDAB20C49D3
:10B1EC009DF907305201D2B20B4483F800230BE0D7
:10B1FC00009BDAB207499DF8073003F00F03043BBC
:10B20C005201D2B20B441A7600BF02B0704700BF95
:10B21C0000E100E000ED00E082B00190019B1B0B0F
:10B22C005BB2184602B0704700B583B003460A46BD
:10B23C008DF8073013468DF806309DF806209DF9E1
:10B24C00073011461846FFF7BFFF00BF03B05DF88B
:10B25C0004FB00B583B003468DF807309DF9073029
:10B26C001846FFF797FF00BF03B05DF804FB000022
:10B27C0082B003468DF807300F4A9DF90730002B3A
:10B28C0000DA1F335B115BB252F823209DF90730B3
:10B29C00594203F01F0301F01F0158BF4B425BB230
:10B2AC0022FA03F303F00103002B14BF0123002344
:10B2BC00DBB2184602B0704700E100E082B00190AA
:10B2CC004FF08042019BC2F8083300BF02B07047B8
:10B2DC0082B003468DF807309DF8073003F18043A8
:10B2EC0001221A6000BF02B0704784B00346ADF86B
:10B2FC000630BDF8063003F1804300221A60BDF819
:10B30C00063003F180431B680393039B00BF04B01A
:10B31C00704782B00346ADF80630BDF8063003F135
:10B32C0080431B68002B14BF01230023DBB218469B
:10B33C0002B0704782B001904FF08042019BC2F87E
:10B34C00183500BF02B070474FF08043D3F8183463
:10B35C001B0C03F00103002B14BF01230023DBB2F1
:10B36C001846704700B583B006238DF807304FF0B0
:10B37C008040FFF751FF03461846FFF779FF03465D
:10B38C0083F00103DBB2002B13D04FF08040FFF7AA
:10B39C0043FF03461A469DF8073019461046FFF73F
:10B3AC0043FF4FF08040FFF737FF03461846FFF787
:10B3BC0050FF00BF03B05DF804FB000084B00190A7
:10B3CC0000230393084B1B79002B02D08523039396
:10B3DC0005E0054A019B1360034B01221A71039B84
:10B3EC00184604B0704700BF8828002008B5FFF746
:10B3FC00B9FF0120FFF79EFF00BF08BD08B5022072
:10B40C00FFF75CFF4FF48270FFF76FFF0C20FFF724
:10B41C005FFF00BFFFF798FF0346002BFAD100BF78
:10B42C0000BF08BD08B54FF48070FFF772FF0346EC
:10B43C00002B0AD04FF48070FFF757FF0120FFF765
:10B44C003DFF0C4B1B68002098474FF48270FFF7B0
:10B45C0060FF0346002B0AD04FF48270FFF745FFC4
:10B46C000220FFF72BFF034B1B680120984700BFFE
:10B47C0008BD00BF8828002082B003468DF8073035
:10B48C009DF90730002B0CDB9DF8073003F01F02F1
:10B49C0005499DF907305B09012000FA02F241F8D9
:10B4AC00232000BF02B0704700E100E082B00346E9
:10B4BC0000918DF807309DF90730002B0ADB009BBB
:10B4CC00DAB20C499DF907305201D2B20B4483F821
:10B4DC0000230BE0009BDAB207499DF8073003F01C
:10B4EC000F03043B5201D2B20B441A7600BF02B0D8
:10B4FC00704700BF00E100E000ED00E082B0019079
:10B50C00019B1B0B5BB2184602B0704700B583B0B1
:10B51C0003460A468DF8073013468DF806309DF821
:10B52C0006209DF9073011461846FFF7BFFF00BFF4
:10B53C0003B05DF804FB00B583B003468DF807300B
:10B54C009DF907301846FFF797FF00BF03B05DF871
:10B55C0004FB00B583B00346ADF80630BDF80630E9
:10B56C00184600F026F803461B68012B0CBF01237C
:10B57C000023DBB2184603B05DF804FB00B585B0C0
:10B58C000346ADF80630BDF80630184600F011F849
:10B59C0003461A4600231360BDF80630184600F027
:10B5AC0008F803461B680393039B00BF05B05DF8C6
:10B5BC0004FB82B00346ADF80630BDF8063003F14B
:10B5CC00804303F5C043184602B0704782B0019027
:10B5DC00034A019BC2F8043300BF02B0704700BF9E
:10B5EC000060004082B00190034BD3F80423019B10
:10B5FC001340184602B070470060004082B00190C2
:10B60C00084A019B03F5A27352F82330054943F015
:10B61C000102019B03F5A27341F8232000BF02B085
:10B62C00704700BF0060004084B003900291134645
:10B63C008DF80730144A039B03F5A27352F823309C
:10B64C00114923F4473323F44073039A02F5A27291
:10B65C0041F822300C4A039B03F5A27352F82320C5
:10B66C00029B1B0203F4F8519DF807301B0403F4F2
:10B67C0040330B4304491A43039B03F5A27341F86F
:10B68C00232000BF04B070470060004082B00190DE
:10B69C00054A019B03F5A27352F823301B0A03F0F1
:10B6AC001F03184602B070470060004082B0019042
:10B6BC00064A019B03F5A27352F823301B0C03F0CE
:10B6CC000303DBB2184602B0704700BF00600040B5
:10B6DC0082B001904FF0A043184602B0704700B5FD
:10B6EC0085B00190084611461A4603468DF8033082
:10B6FC000B468DF8023013468DF8013001AB18461D
:10B70C00FFF7E6FF03909DF803209DF802305B00E5
:10B71C001A439DF801309B001A439DF818301B0208
:10B72C0042EA03019DF81C301B04019A1943039B48
:10B73C0002F5E07243F8221000BF05B05DF804FB7F
:10B74C0000B585B003900B468DF80B309DF80B308F
:10B75C000022019200220092002200210398FFF7A0
:10B76C00BEFF00BF05B05DF804FB00B585B00190CD
:10B77C0001AB1846FFF7ACFF0390019A039B02F54F
:10B78C00E07253F8223023F002030293019A039BD8
:10B79C0002F5E072029943F8221000BF05B05DF883
:10B7AC0004FB00B585B001900B468DF8033001AB5E
:10B7BC001846FFF78DFF0390019A039B02F5E07288
:10B7CC0053F82230019A23F44031039B02F5E072C6
:10B7DC0043F82210019A039B02F5E07253F82230D1
:10B7EC009DF8032012041146019A1943039B02F59C
:10B7FC00E07243F8221000BF05B05DF804FB00B501
:10B80C0085B0019001AB1846FFF762FF03900398D7
:10B81C0000F020F80246019B22FA03F303F0010327
:10B82C00184605B05DF804FB00B585B0019001AB7E
:10B83C001846FFF74DFF0390019A039B02F5E07247
:10B84C0053F822301B0C03F00303DBB2184605B08F
:10B85C005DF804FB82B00190019BD3F810351846BB
:10B86C0002B0704786B00390029101924FF0A04352
:10B87C000493039B059319E0059B9B0006AA1344B4
:10B88C0053F8083CD3F82025019B1A60059B9B00BC
:10B89C0006AA134453F8083C019A1268C3F82025F1
:10B8AC00019B04330193059B01330593039A029B7F
:10B8BC001344059A9A42DFD300BF00BF06B070470D
:10B8CC0000B585B0019001AB1846FFF701FF03905E
:10B8DC00019B012202FA03F31A46039BC3F82025AD
:10B8EC0000BF05B05DF804FB84B00190019B5B09BF
:10B8FC00029300230393029B002B03D14FF0FF33E1
:10B90C00039300BF019B03F01F030193039A019B58
:10B91C0022FA03F303F00103002B14BF01230023CD
:10B92C00DBB2184604B0704784B001900091009BC4
:10B93C000393019BDB080293019B03F00703019324
:10B94C000122019B02FA03F30399029A0A4412782A
:10B95C001340184604B0704784B001900091009BCE
:10B96C000393019BDB080293019B03F007030193F4
:10B97C00039A029B13441B785AB20121019B01FAD2
:10B98C0003F35BB2134359B2039A029B1344CAB23A
:10B99C001A7000BF04B0704782B001900C4A019B32
:10B9AC001344303393F90030002B09DB084A019B18
:10B9BC001344303393F90030072B01DC012300E0F2
:10B9CC00002303F00103DBB2184602B0704700BF3E
:10B9DC009028002082B00190064A019B134430331A
:10B9EC0093F90030072BCCBF01230023DBB21846A0
:10B9FC0002B070479028002082B00190064A019B4B
:10BA0C001344303393F90030DB43DBB2DB09DBB298
:10BA1C00184602B0704700BF9028002084B00390F5
:10BA2C00029101928DF80330029B59B20E4A039B8E
:10BA3C00134430330A461A700B49029B019A41F8A1
:10BA4C0023209DF8033083F00103DBB2002B08D0D8
:10BA5C00029B083B039A51B2034A13440A4683F8EB
:10BA6C00502000BF04B070479028002082B0019095
:10BA7C00044A019B13443033FF221A7000BF02B0FA
:10BA8C00704700BF9028002000B583B00190044996
:10BA9C000198FFF761FF00BF03B05DF804FB00BF26
:10BAAC00E428002082B00190044A019B13443033F7
:10BABC0093F90030184602B0704700BF9028002060
:10BACC0082B00190034A019B52F82330184602B011
